:020000040800F2
:10000000E8680020055C0008095600080B56000847
:100010000D5600080F560008115600080000000099
:10002000000000000000000000000000C3130008F2
:1000300013560008000000007D1300081556000844
:10004000715C0008755C0008795C00087D5C000844
:10005000815C0008855C0008895C00088D5C0008F4
:10006000915C0008955C0008995C00089D5C0008A4
:10007000A15C0008A55C0008A95C0008AD5C000854
:10008000B15C0008B55C0008B95C0008BD5C000804
:10009000C15C0008C55C0008C95C0008CD5C0008B4
:1000A000D15C0008D55C0008D95C0008DD5C000864
:1000B000E15C000829560008E55C0008E95C0008DE
:1000C000ED5C0008F15C0008F55C0008F95C0008D4
:1000D000FD5C0008015D0008055D0008095D000881
:1000E000695600080D5D00083B560008115D0008C8
:1000F000155D0008195D00081D5D00080000000086
:10010000215D000800000000255D0008295D000851
:100110002D5D0008315D0008355D0008395D00087F
:100120003D5D0008415D0008455D0008495D00082F
:100130004D5D00080000000000000000515D000857
:10014000555D0008595D00085D5D000831560008E6
:100150002DE9F84384B006000F00914698464846C2
:1001600080B2800000F01EFE0500002D0BD05C2048
:1001700000F018FE0400002C01D0256304E02800E4
:1001800000F09AFE00E00024002C13D00D990C988A
:100190000022039202940191009043461FFA89F9CC
:1001A0004A463900300000F00AF8200000F06CF8F0
:1001B000012001E05FF0FF3005B0BDE8F0832DE9DC
:1001C000F84305000C0017009846002C07D12020AA
:1001D00080F31188BFF34F8FBFF36F8FFEE70A9E46
:1001E000B900A522D6F83090484600F00BFF306BDE
:1001F00000EB8700071FFF08FF0017F0070000282B
:1002000007D0202080F31188BFF34F8FBFF36F8F8B
:10021000FEE7002100E0491C102907D2605C06EBD4
:10022000010282F83400605C0028F4D1DDF82090EF
:10023000002086F84300B9F1080F01D35FF00709E9
:10024000099CC6F82C90C6F84C9000203065301DF3
:1002500000F01AFF16F1180000F016FF3661D9F110
:100260000809C6F81890766200207065002086F8AC
:10027000580042462900380000F080FF3060002C12
:1002800000D02660BDE8F18338B5040000F0E2FF3D
:10029000DFF828150868401C0860DFF82455286836
:1002A000002806D12C60086801280DD100F091FBD0
:1002B0000AE0DFF810050068002805D1E06A296827
:1002C000C96A884200D32C60DFF8FC040168491C2D
:1002D000016000686064DFF860150A680123E06A65
:1002E00083401A430A60211DDFF85025E36A142079
:1002F000434302EB030000F0CAFE00F0C5FFDFF845
:10030000C404006800280DD02868C06AE16A8842E9
:1003100008D25FF08050DFF8E8150860BFF34F8F18
:10032000BFF36F8F31BD38B5040000F093FF002C90
:1003300003D1DFF88C040468FFE7201D00F0CEFE37
:1003400000280FD1DFF8F414E26A142042438858E1
:10035000002807D1DFF8E0140A680123E06A83402F
:100360009A430A60A06A002803D014F1180000F034
:10037000B5FEDFF854040168491C0160DFF8405401
:10038000286884420AD1211DDFF8E40400F07FFED2
:10039000DFF8E0040168491C016009E0DFF81C0493
:1003A0000168491E0160200000F05EFB00F065FB63
:1003B00000F06AFFDFF80C040068002818D02868F5
:1003C000844215D1DFF830050068002807D02020CE
:1003D00080F31188BFF34F8FBFF36F8FFEE75FF09D
:1003E0008050DFF81C150860BFF34F8FBFF36F8F8D
:1003F00031BD70B5040000F02DFF002C03D1DFF8F3
:10040000C0030468FFE7201D00F068FE00280FD13C
:10041000DFF82814E26A142042438858002807D1E4
:10042000DFF814140A680123E06A83409A430A60E3
:10043000A06A002803D014F1180000F04FFEDFF886
:100440006C55211D280000F022FE94F85800012868
:1004500002D1002084F8580000F016FFDFF8646332
:100460003068002805D000F0F5FE00F006FB00F033
:100470000BFFDFF84C130868844224D13068002851
:1004800016D0DFF874040068002807D0202080F31D
:100490001188BFF34F8FBFF36F8FFEE75FF080507F
:1004A000DFF85C140860BFF34F8FBFF36F8F0AE073
:1004B0002868DFF808231268904202D10020086003
:1004C00001E000F083F970BD010000200A0000295E
:1004D00007D1202080F31188BFF34F8FBFF36F8FB8
:1004E000FEE75169DFF8C434994208D1916ADFF818
:1004F0001C37994203D0916A002900D1012070472E
:1005000038B50400002807D1202080F31188BFF3FC
:100510004F8FBFF36F8FFEE7DFF8A4522868844245
:100520002DD0002C2BD000F095FE2000FFF7CCFF43
:10053000002822D0201D00F0D1FDDFF8FC120A684F
:100540000123E06A83401A430A60211DDFF8EC2290
:10055000E36A1420434302EB030000F098FDE06AD5
:100560002968C96A884208D35FF08050DFF8F41424
:100570000860BFF34F8FBFF36F8F00F085FE31BD72
:10058000E0B5DFF88C060190002000900023822265
:10059000DFF880160FF21940FFF7DAFD012816D1B7
:1005A000202080F31188BFF34F8FBFF36F8F5FF070
:1005B000FF30DFF8641608600120DFF808120860D9
:1005C0000020DFF83813086000F0FDFD07BD10F1D2
:1005D000010FFBD1202080F31188BFF34F8FBFF3B1
:1005E0006F8FFEE7DFF810030168491C0160704758
:1005F00070B500240025DFF800633068002807D1BB
:10060000202080F31188BFF34F8FBFF36F8FFEE779
:1006100000F020FE3068401E30603068002855D160
:10062000DFF898010068002826D14FE0C868C46848
:1006300014F1180000F052FD201D00F04FFDDFF80E
:10064000F8110A680123E06A83401A430A60211DF9
:10065000DFF8E821E36A1420434302EB030000F0D3
:1006600016FDE06ADFF858110968C96A884203D3A9
:100670000120DFF878160860DFF890150868002878
:10068000D4D1002C01D000F0F8F9DFF85C663468B2
:10069000002C0CD000F01EF8002803D00120DFF859
:1006A0004C160860641E002CF4D100203060DFF886
:1006B0003C060068002809D001255FF08050DFF873
:1006C00040120860BFF34F8FBFF36F8F00F0DCFD67
:1006D000280070BDF8B5002587480068002860D163
:1006E00086480468641C0460002C18D18A49086894
:1006F0000068002807D0202080F31188BFF34F8FB7
:10070000BFF36F8FFEE70868844A13680B601060C0
:10071000DFF8DC050168491C016000F0AEF9DFF884
:10072000F864306884422DD320E0381D00F0D6FCF8
:10073000B86A002803D017F1180000F0CFFC3E493A
:100740000A680123F86A83401A430A60391D3B4A4C
:10075000FB6A1420434302EB030000F098FCF86AA4
:1007600017490968C96A884200D301256A4908689F
:100770000068002811D00868C068C768786884429B
:10078000D3D230600E4800682C49C26A142042431C
:10079000885802280AD3012508E05FF0FF30306056
:1007A000F0E7DFF844050168491C0160DFF83C050B
:1007B0000068002800D001252800F2BDB8480020BC
:1007C000A8480020C4480020D44800204A480068B7
:1007D000002804D00120DFF8141508602BE0002069
:1007E000DFF80815086014480068B0FA80F1D1F10C
:1007F0001F011422114B02FB01F01858002807D1E9
:10080000202080F31188BFF34F8FBFF36F8FFEE777
:10081000514303EB0100416849684160416810F1B0
:100820000802914202D14168496841604068C0684D
:10083000DFF8341508607047C048002014460020D7
:1008400010B50C00002807D1202080F31188BFF3D9
:100850004F8FBFF36F8FFEE7DFF80C150968183173
:1008600000F021FC0121200000F046FA10BD00003C
:100870002C480020B448002010B5C068C468002C83
:1008800007D1202080F31188BFF34F8FBFF36F8F04
:10089000FEE714F1180000F021FC1748006800285A
:1008A00015D1201D00F01AFCDFF8C0140A680123DE
:1008B000E06A83401A430A60211DDFF8B424E36A2A
:1008C0001420434302EB030000F0E1FB05E014F1C8
:1008D0001801DFF8380300F0DAFBDFF88C04006859
:1008E000C06AE16A884205D201200121DFF80424B0
:1008F000116000E0002010BDE0480020BC4800204E
:1009000004ED00E0DFF8E81309680160DFF868141F
:100910000968416070470000AC480020B0480020E2
:1009200038B504000D00002C07D1202080F3118879
:10093000BFF34F8FBFF36F8FFEE7002D07D120204D
:1009400080F31188BFF34F8FBFF36F8FFEE700F086
:1009500081FCDFF8240400686168411A2A6812F1FA
:10096000010F01D1002418E0DFF884231268236806
:100970009A4204D06268904201D301240DE02868B5
:10098000814207D22868411A29602000FFF7BAFF88
:10099000002402E000202860012400F075FC200003
:1009A00032BD0120DFF84C1308607047404800203A
:1009B00080B500F038F8DFF8B80300680228F8D3F3
:1009C0005FF0805027490860BFF34F8FBFF36F8FF0
:1009D000EFE738B5002408E0DFF89403142101FBA9
:1009E00004F1084400F041FB641C082CF4D3DFF848
:1009F0008C43200000F039FBDFF88453280000F01E
:100A000034FB824800F031FBDFF8780300F02DFB67
:100A1000DFF8740300F029FBDFF870030460DFF8EF
:100A20007003056031BD38B515E000F013FCDFF848
:100A30005403C068C468201D00F050FBDFF8540365
:100A40000168491E01602868401E286000F01CFCF7
:100A5000200000F009F8DFF8405328680028E4D1AE
:100A600031BD000004ED00E010B50400206B00F083
:100A700023FA200000F020FA10BDDFF810130868F8
:100A80000068002804D15FF0FF306349086005E08A
:100A90000868C068C06840685F4908607047DFF850
:100AA000FC020068002801D1012007E0DFF8C40241
:100AB0000068002801D1022000E000207047F8B54E
:100AC00004000021002848D0DFF89C72E06A3A68F0
:100AD000D26A90423BD2A069002804D43868C06A28
:100AE000D0F10800A061DFF8885214266069E16A3D
:100AF00071432944884225D1201D00F0EFFA0028D7
:100B00000CD1E06A70432858002807D1DFF85C1246
:100B10000A680123E06A83409A430A603868C06A21
:100B2000E062DFF848120A680123E06A83401A4352
:100B30000A60211DE06A06FB00F605EB060000F0E6
:100B4000A6FA02E03868C06AE062012105E0E06CC4
:100B50003A68D26A904200D201210800F2BD10B575
:100B60000400002100284FD0DFF8FC010068844217
:100B700007D0202080F31188BFF34F8FBFF36F8F12
:100B8000FEE7206D002807D1202080F31188BFF3F5
:100B90004F8FBFF36F8FFEE7206D401E2065E06A28
:100BA000E26C904230D0206D00282DD1201D00F045
:100BB00095FA00280FD1DFF8B811E26A14204243F9
:100BC0008858002807D1DFF8A4110A680123E06AD9
:100BD00083409A430A60E06CE062E06AD0F108006A
:100BE000A061DFF888110A680123E06A83401A4394
:100BF0000A60211DDFF87821E36A1420434302EBE9
:100C0000030000F044FA0121080010BD184800203C
:100C1000DC480020545C0008D848002070B504006F
:100C20000122002853D0206D002807D1202080F316
:100C30001188BFF34F8FBFF36F8FFEE7E06C8842E0
:100C400000D3E16CE06A884241D0206D90423ED1F1
:100C5000DFF814010068844207D1202080F3118856
:100C6000BFF34F8FBFF36F8FFEE7E06AE162A269C7
:100C7000002A02D4D1F10801A161DFF8F450142652
:100C8000616970432844814221D1201D00F026FA79
:100C900000280CD1E06A70432858002807D1DFF8FB
:100CA000CC100A680123E06A83409A430A60DFF8A7
:100CB000BC100A680123E06A83401A430A60211DC0
:100CC000E06A06FB00F605EB060000F0E0F970BDF7
:100CD000DFF894100868002803D00868026D521CE1
:100CE0000265086870470000C8480020CC48002012
:100CF000D0480020CC480020F8B505000C001E4864
:100D00000668194F3868001D00F0E8F9002807D17F
:100D1000386816490A680123C06A83409A430A600A
:100D200015F1010F07D1002C05D03868011D1648B8
:100D300000F0ADF916E0AD1938684560B54206D24D
:100D40003868011D1248006800F0ADF90AE0386803
:100D5000011D0E48006800F0A6F9114801688D4297
:100D600000D20560F1BD0000A8480020C048002066
:100D700014460020E0480020BC480020F047002036
:100D8000044800202C48002040480020AC480020A7
:100D9000B0480020B8480020B4480020C4480020D3
:100DA000D84800202DE9F84304000025FFF71AFC7D
:100DB000DFF83492D9F80000002801D100F0B5F82E
:100DC0008A4F3868044266D1002C15D088480068E4
:100DD000041914F0070F0FD014F1080014F00704E1
:100DE000041B14F0070F07D0202080F31188BFF3F5
:100DF0004F8FBFF36F8FFEE7002C4CD0DFF8F481EC
:100E0000D8F80000A04246D37B480100066801E004
:100E1000310036687068A04202D230680028F7D1ED
:100E2000D9F80000864236D071480A68036802EBA0
:100E3000030532680A60006840007168091B884237
:100E400014D206EB040111F00700002807D020207F
:100E500080F31188BFF34F8FBFF36F8FFEE7706889
:100E6000001B48607460080000F08EF8D8F800108D
:100E70007068091AC8F800106048D8F800100268B5
:100E8000914202D2D8F800100160716838680143BD
:100E9000716000203060FFF7ABFB15F00700002801
:100EA00007D0202080F31188BFF34F8FBFF36F8FDF
:100EB000FEE72800BDE8F28310B50100002833D01A
:100EC0004B480068404201EB0004484960680A68EA
:100ED000104207D1202080F31188BFF34F8FBFF35A
:100EE0006F8FFEE72068002807D0202080F311884C
:100EF000BFF34F8FBFF36F8FFEE760680A68104241
:100F000012D0206800280FD16268086882436260AE
:100F1000FFF768FB37490A68606882180A6020009A
:100F200000F032F8FFF764FB10BD10B44FF48042BC
:100F30003348010011F0070F04D0C91DC908C900CA
:100F4000521A82182C480160002343605218284826
:100F50000068121AD208D2002348026000230468F5
:100F60006360002304682360521A4A6000680860C6
:100F70004868224A106048681E4908605FF00040D7
:100F80001A49086010BC704710B41B4A00E0126890
:100F900011688142FBD3110053681944814204D186
:100FA00051684068411851601000010043681944BD
:100FB0001368994210D10C4913680C68A34208D0F9
:100FC000436811684968CB1843601168096801607B
:100FD00004E00968016001E011680160824200D00C
:100FE000106010BC70470000804800208C48002032
:100FF000685C00088448002064480020884800207D
:10100000D801002062F30F2262F31F42401810F053
:10101000030308D0C91A1FD3DB0748BF00F8012D0E
:1010200028BF20F8022D130030B41446154610399D
:1010300028BF20E93C00FAD8490728BF20E90C0066
:1010400048BF40F8042D890028BF20F8022D48BF72
:1010500000F8012D30BC7047C91818BF00F8012DE9
:10106000CB0728BF00F8012D704710F1080141603F
:101070005FF0FF31816010F10801C16010F10801DB
:1010800001610021016070470021016170474268E1
:101090004A6093688B609368596091600861016849
:1010A000491C0160704710B40B6813F1010F01D1A6
:1010B000026907E010F1080200E0526854682468F1
:1010C000A342FAD253684B604B6899608A605160C2
:1010D00008610168491C016010BC704701698268A1
:1010E00043689A60426883685A604A68824201D1C4
:1010F00082684A60002202610868401E0860086831
:101100007047F0B40246106895681318506803EBF6
:101110005004C0071DD54D441BE013F8017B05F8B2
:10112000017B491EF9D1A0B1B60813F8011B06F0E6
:101130000306032E08BF13F8016B01EB0621494299
:10114000801C294405D011F8016B05F8016B401E85
:10115000F9D1A3420ED013F8016B16F0030104BFBE
:1011600013F8011BC91C30090F28DAD113F8010B41
:101170000F30D6E7F0BC02F10C007047001F5FF0A3
:1011800080730360001F490849000160001F0FF2CF
:101190000D01016014380260203870476248006811
:1011A00010F1010F07D0202080F31188BFF34F8F7B
:1011B000BFF36F8FFEE7202080F31188BFF34F8FBE
:1011C000BFF36F8FFEE7E0B5584801780191FF212A
:1011D000017001788DF800109DF8001011F02001C9
:1011E000534A1170534907220A6007E00A68521EE9
:1011F0000A609DF8002052008DF800209DF8002024
:101200001206F3D40A68D2F10702042A07D020207C
:1012100080F31188BFF34F8FBFF36F8FFEE70A682B
:1012200012020A600A6812F4E0620A600199017011
:101230004148016851F470010160016851F070414A
:10124000016000F081F800203749086000F0C9F81B
:1012500000200EBD202080F31188BFF34F8FBFF315
:101260006F8F31490A68521C0A60096801290AD146
:1012700032490968090606D080F31188BFF34F8F01
:10128000BFF36F8FFEE7704727490868002807D132
:10129000202080F31188BFF34F8FBFF36F8FFEE7DD
:1012A0000868401E08600868002802D1002080F30A
:1012B0001188704780B5202080F31188BFF34F8FCD
:1012C000BFF36F8FFFF706FA002803D05FF080505E
:1012D0001A490860002080F3118801BDEFF30580F2
:1012E00010280FD316490968085C11490978C0B263
:1012F000884207D2202080F31188BFF34F8FBFF3BD
:101300006F8FFEE70B4800680E49096811F4E06131
:10131000884207D2202080F31188BFF34F8FBFF39C
:101320006F8FFEE7704700004401002000E400E0FA
:10133000E64800209448002020ED00E004ED00E0A5
:101340006C5C00080CED00E0084800210160002101
:10135000074A1160074909684FF47A72B1FBF2F14C
:10136000491E054A116007210160704710E000E046
:1013700018E000E04801002014E000E0EFF30980ED
:10138000BFF36F8F1D4B1A6820E9F00F106008B58E
:101390004FF0200080F31188BFF34F8FBFF36F8FA2
:1013A000FFF714FA4FF0000080F31188BDE8084001
:1013B00019680868B0E8F00F80F30988BFF36F8FF1
:1013C00070470E4B19680868B0E8F00F80F3098881
:1013D000BFF36F8F4FF0000080F311884EF00D0EB9
:1013E000704707480068006880F3088862B661B6F5
:1013F000BFF34F8FBFF36F8F00DF0000A8480020BE
:1014000008ED00E038B504000D00002C07D12020C5
:1014100080F31188BFF34F8FBFF36F8FFEE7FFF7A5
:1014200019FF2168E26B206C424301EB0200A060CF
:101430000020A063206860602168E26B521E206C6F
:10144000424301EB0200E0605FF0FF3084F84400AB
:1014500084F84500002D12D12069002817D014F11E
:101460001000FFF709FA002811D05FF08050DFF874
:10147000E8160860BFF34F8FBFF36F8F07E014F1DA
:101480001000FFF7F2FD14F12400FFF7EEFDFFF767
:10149000FBFE012032BDF8B506000D001700002E3E
:1014A00007D1202080F31188BFF34F8FBFF36F8FD8
:1014B000FEE7002D01D1002001E005FB06F05030D1
:1014C000FFF770FC0400002C09D0200010F150023E
:1014D00000943B00DBB22900300000F002F820004D
:1014E000F2BD38B51C00049D002901D12D6000E03B
:1014F0002A60E863296401212800FFF783FF85F84B
:101500004C4031BD80B500280AD000218160002107
:1015100001600021C16000230022002100F00EF8CC
:1015200001BD10B5020001200021D2B2FFF7B3FFC8
:1015300004002000FFF7E6FF200010BDF7B505000E
:101540000E001F000024002D07D1202080F31188F9
:10155000BFF34F8FBFF36F8FFEE7002E02D1286CD1
:10156000002801D1012000E00020C0B2002807D1EE
:10157000202080F31188BFF34F8FBFF36F8FFEE7FA
:10158000022F02D1E86B012801D1012000E00020E8
:10159000C0B2002807D1202080F31188BFF34F8FFD
:1015A000BFF36F8FFEE7FFF77AFA002802D10298A7
:1015B000002801D1012000E00020C0B2002838D16D
:1015C000202080F31188BFF34F8FBFF36F8FFEE7AA
:1015D000029800285CD0002C03D16846FFF792F9EE
:1015E0000124FFF751FEFEF7FDFFFFF733FE95F9EB
:1015F000440010F1010F02D1002085F8440095F954
:10160000450010F1010F02D1002085F84500FFF7D9
:101610003BFE02A96846FFF783F9002852D1280053
:1016200000F043FB002837D1280000F0F9FAFEF75C
:10163000DFFFFFF70FFEA86BE96B884201D3022F93
:10164000C6D13A003100280000F092FA696A0029F8
:101650000FD015F12400FFF70FF9002814D05FF028
:101660008050DFF8F4140860BFF34F8FBFF36F8F23
:101670000AE0002808D05FF08050DFF8DC14086032
:10168000BFF34F8FBFF36F8FFFF7FEFD01201FE009
:10169000FFF7FAFD00201BE0029915F11000FFF79B
:1016A000CFF8280000F0BCFAFEF7A2FF0028C0D156
:1016B0005FF08050DFF8A0140860BFF34F8FBFF3D6
:1016C0006F8FB6E7280000F0ABFAFEF791FF00201D
:1016D000FEBD2DE9F84305000E0014009846002DCC
:1016E00007D1202080F31188BFF34F8FBFF36F8F96
:1016F000FEE7002E02D1286C002801D1012000E075
:101700000020C0B2002807D1202080F31188BFF349
:101710004F8FBFF36F8FFEE7B8F1020F02D1E86B76
:10172000012801D1012000E00020C0B2002807D12B
:10173000202080F31188BFF34F8FBFF36F8FFEE738
:10174000FFF7CCFDEFF31187202080F31188BFF362
:101750004F8FBFF36F8FA86BE96B884202D3B8F14C
:10176000020F20D195F9459042463100280000F043
:10177000FFF948465FF0FF3140B288420DD1686AF8
:1017800000280ED015F12400FFF776F8002808D0C5
:10179000002C06D00120206003E019F1010985F832
:1017A0004590012000E0002087F31188BDE8F28316
:1017B00070B505000C00002D07D1202080F31188A2
:1017C000BFF34F8FBFF36F8FFEE7286C002807D061
:1017D000202080F31188BFF34F8FBFF36F8FFEE798
:1017E0002868002802D1A868002801D1012000E063
:1017F0000020C0B2002807D1202080F31188BFF359
:101800004F8FBFF36F8FFEE7FFF768FDEFF3118691
:10181000202080F31188BFF34F8FBFF36F8FA86B29
:10182000E96B88421CD295F94510401CA86308005A
:101830005FF0FF3240B290420DD1686A00280DD0AF
:1018400015F12400FFF718F8002807D0002C05D068
:101850000120206002E0491C85F84510012000E0CD
:10186000002086F3118870BDF7B506000F00002434
:10187000002E07D1202080F31188BFF34F8FBFF3D4
:101880006F8FFEE7002F02D1306C002801D10120BC
:1018900000E00020C0B2002807D1202080F311888A
:1018A000BFF34F8FBFF36F8FFEE7FFF7F8F8002805
:1018B00002D10298002801D1012000E00020C0B22E
:1018C00000280CD1202080F31188BFF34F8FBFF385
:1018D0006F8FFEE7300000F0A3F9FEF789FEFFF7F7
:1018E000B9FCB56B002D06D1029800281FD1FFF777
:1018F000CBFC002064E03900300000F07CF96D1E64
:10190000B563306900280ED016F11000FEF7B4FF61
:10191000002808D05FF08050DFF83C120860BFF369
:101920004F8FBFF36F8FFFF7AFFC012048E0002C13
:1019300003D16846FEF7E6FF0124FFF7A5FCFEF79A
:1019400051FEFFF787FC96F9440010F1010F02D118
:10195000002086F8440096F9450010F1010F02D1ED
:10196000002086F84500FFF78FFC02A96846FEF7C5
:10197000D7FF002819D1300000F089F90028A9D03C
:10198000029916F12400FEF75BFF300000F048F9E1
:10199000FEF72EFE0028A2D15FF080506E4908604D
:1019A000BFF34F8FBFF36F8F99E7300000F038F926
:1019B000FEF71EFE300000F06AF900288FD00020EC
:1019C000FEBD73B582B0060000240025002E07D1AD
:1019D000202080F31188BFF34F8FBFF36F8FFEE796
:1019E000306C002807D0202080F31188BFF34F8F80
:1019F000BFF36F8FFEE7FFF752F8002802D103987C
:101A0000002801D1012000E00020C0B200280CD144
:101A1000202080F31188BFF34F8FBFF36F8FFEE755
:101A2000300000F0FDF8FEF7E3FDFFF713FCB06BAC
:101A300000280CD1039800282AD1002D24D0202082
:101A400080F31188BFF34F8FBFF36F8FFEE7401E07
:101A5000B0633068002802D1FFF73AF9B06030690E
:101A600000280DD016F11000FEF706FF002807D061
:101A70005FF0805038490860BFF34F8FBFF36F8F1E
:101A8000FFF702FC012065E0FFF7FEFB002061E0AC
:101A9000002C03D16846FEF735FF0124FFF7F4FB65
:101AA000FEF7A0FDFFF7D6FB96F9440010F1010FF9
:101AB00002D1002086F8440096F9450010F1010F8C
:101AC00002D1002086F84500FFF7DEFB03A9684637
:101AD000FEF726FF002824D1300000F0D8F80028B7
:101AE0009ED03068002807D1FFF7B4FBB068FEF73E
:101AF000E6FF0500FFF7C8FB039916F12400FEF787
:101B00009FFE300000F08CF8FEF772FD00288CD1AB
:101B10005FF0805010490860BFF34F8FBFF36F8FA5
:101B200083E7300000F07CF8FEF762FD300000F043
:101B3000AEF800283FF479AF002D0AD0FFF78AFBFA
:101B4000300000F00BF80100B068FFF767F8FFF70E
:101B50009BFB002004B070BD04ED00E0416A002949
:101B600004D0006B0068D0F1080000E0002070474E
:101B70002DE9F041060015000027B46B306C0028F9
:101B800009D13068002831D1B068FEF7E8FF0700BE
:101B90000020B0602AE0002D0FD1326C756828005B
:101BA00000F092F87068316C084470607068B16839
:101BB00088421BD33068706018E0326CD6F80C8015
:101BC000404600F081F8F068316C49420844F0600A
:101BD000F0683168884204D2B068316C49420844E8
:101BE000F060022D02D1002C00D0641E641CB4638E
:101BF0003800BDE8F08110B50C00016C00290ED052
:101C0000C168026C1144C160C1688268914201D30D
:101C10000168C160026CC168200000F055F810BD79
:101C200070B50400FFF716FB94F9455008E014F175
:101C30002400FEF721FE002801D0FEF7B2FE6D1E43
:101C4000280040B2012802DB606A0028EFD15FF073
:101C5000FF3584F84550FFF717FBFFF7FBFA94F9BF
:101C6000446008E014F11000FEF706FE002801D0E1
:101C7000FEF797FE761E300040B2012802DB206995
:101C80000028EFD184F84450FFF7FEFA70BD10B57C
:101C90000400FFF7DFFAA06B002801D1012400E067
:101CA0000024FFF7F1FA200010BD10B50400FFF783
:101CB000D1FAA06BE16B884201D1012400E000243D
:101CC000FFF7E2FA200010BD62B38B0708D0521E66
:101CD00011F8013B00F8013B00F024808B07F6D19E
:101CE000830740F0208000BF103A07D330B4B1E83A
:101CF0003810103AA0E83810F9D230BC530724BF8E
:101D0000B1E80810A0E8081044BF51F8043B40F8BF
:101D1000043BD20724BF31F8022B20F8022B44BF2A
:101D20000B7803707047121F17D35B0009D151F86D
:101D3000043B20F8023B1B0C121F20F8023BF6D29A
:101D40000BE051F8043B00F8013B1B0A20F8023B72
:101D50001B0C121F00F8013BF3D238BF121D521E9C
:101D600024BF11F8013B00F8013BF8D8704730B4AC
:101D7000002513E050F8042BD30744BFA9F1010359
:101D80009A18091F042942F8045BFAD213468C07FB
:101D900044BF15809B1CC90748BF1D7050F8041B29
:101DA0000029E7D130BC70474269126832F4FE6204
:101DB00043691A6042691268C9B252EA0112406965
:101DC0000260704780B5C9B2FFF7EEFF01BD80B574
:101DD000DFF828254B7852F82320904702BD80B5C4
:101DE00090F8CE20032A07D10A79022A04DAD0F823
:101DF0002C24D268904700E0012002BD00207047EB
:101E000010B504008021200000F087FB0021200095
:101E100000F083FB200000F05CFE10BD30B4002316
:101E20001AE00400240F37341D00EDB201F815400C
:101E30000AE00400240F0A2CF3D20400240F3034EB
:101E40001D00EDB201F81540000100241D00EDB2A7
:101E500001EB45056C705B1C1C001500E4B2EDB293
:101E6000AC42E6D330BC704738B50400207800F0AF
:101E7000FF00062816D0DFF888040068DFF8841415
:101E80000D68DFF8841409680818002812D00822A9
:101E9000A11CFFF7C3FF042214F112012800FFF771
:101EA000BDFF07E0DFF864040068002802D060800E
:101EB000000CA08031BD01207047D0F828140968BB
:101EC00009781180D0F8280400687047D0F82814E9
:101ED000496889781180D0F8280440687047D0F8A4
:101EE0002814896889781180D0F8280480687047A0
:101EF000D0F82804C068C9B250F8210001781180D8
:101F0000704710B48C88012210F1D003097811F0C9
:101F10000301C9B2002903D0022930D026D34CE0F6
:101F200090F8CE10022903D090F8CE1003291CD1CE
:101F300090F81814002904D00121DFF8D42311707F
:101F400003E00021DFF8C823117090F81A0400287C
:101F500006D0DFF8BC03017851F00201017003E004
:101F60000020DFF8AC130870002226E090F8CE00C5
:101F7000032803D1E4B2022C00DA00221DE090F81D
:101F8000CE10032918D12100C9B209060AD514F0D0
:101F90007F041C214C43204490F8D200DFF87013DA
:101FA000087008E0E4B21C214C43204490F876020B
:101FB000DFF85C1308700022FFE71000C0B20028B1
:101FC00004D1DFF84C039860022058611000C0B2C1
:101FD00010BC704738B504000D000020287810F0C0
:101FE0000300C0B2002803D0022813D011D32EE082
:101FF00094F8CE00022803D094F8CE00032807D12D
:102000006888012804D1002084F81A0400201FE009
:102010001DE01CE0A98894F8CE00032816D168883A
:10202000002811D10800C0B200280DD00800C0B2AD
:10203000802809D0C9B2200000F08AFA29002000C7
:10204000D4F82C24D2689047002001E0FFE701205B
:1020500032BD80B500220A7812F00302D2B2002A03
:1020600003D0022A13D011D328E090F8CE20022A00
:1020700003D090F8CE20032A07D14988012902D144
:10208000012180F81A14002019E017E016E08A8870
:1020900090F8CE30032B10D1498800290BD11100C4
:1020A000C9B2002907D01100C9B2802903D011009C
:1020B000C9B200F032FA002001E0FFE7012002BDC2
:1020C00010B50400888800281DD1C88800281AD1BE
:1020D000887810F07F0084F8CD0094F8CE000328B3
:1020E00011D094F8CD102000FFF76CFE94F8CD00CD
:1020F000002803D0022084F8CE0002E0012084F8FA
:10210000CE00002000E0012010BDF8B504000E0054
:1021100000200020012714F1D005307810F00300D2
:10212000C0B2002803D0022857D04ED356E073889F
:102130001B0A71881800C0B2401E09D0401E1AD078
:10214000401E26D0401E042835D90B3834D03BE041
:1021500015F11402C9B22000DFF8B8C1DBB20CEBF4
:10216000830353F8043C9847A860F088402801D1C5
:102170000820686128E015F11402C9B22000DFF8D8
:1021800094C1DBB20CEB830353F8043C9847A8607E
:102190001AE00800C0B206280CDA15F11402C9B220
:1021A0002000DFF870C1DBB20CEB830353F8043C72
:1021B0009847A86008E007E015F11402C9B22000B2
:1021C000FFF78DFEA860FFE708E031002000D4F89B
:1021D0002C24D2689047070000E0FFE768690028D8
:1021E00019D0F088002816D06869F18888420FD28B
:1021F0006869A98888420DD36869A988B0FBF1F2A3
:1022000001FB1200002805D1012084F8250401E01B
:10221000F088686100273800C0B2F2BD0020704726
:102220000200012012F1D00392F8CE10022902D050
:10223000032906D00BE092F8CC10002900D1002031
:1022400005E092F8CC10002900D00020FFE7010043
:10225000C9B2002904D112F1CC0199600121596160
:10226000C0B2704738B5050001202B4C4988217059
:10227000217802293FDA95F8CE1001293AD03AD3D5
:10228000032911D037D2207800280BD021782800DC
:10229000D5F82C2452689047207885F8CC0003208C
:1022A00085F8CE00002026E0207800280CD1217887
:1022B0002800D5F82C2492689047207885F8CC0027
:1022C000022085F8CE0013E0207895F8CC108842E3
:1022D0000ED021782800D5F82C24926890472078D9
:1022E00085F8CC0021782800D5F82C245268904736
:1022F000002000E0FFE7C0B232BD00004C0100202A
:10230000E8F7FF1FECF7FF1FF0F7FF1F0021024067
:10231000E448002080010020E748002090F8CE200B
:10232000012A04D013D3032A03D001D30FE00EE017
:102330000DE00979022909DA10F1D001D0F82C0456
:10234000401C886001204861002001E0FFE7012077
:10235000704780B590F8CE20012A04D014D3032A08
:1023600003D001D310E00FE00EE00A79022A0ADA66
:10237000D0F82C241269002A03D0D0F82C2412693A
:102380009047002001E0FFE7012002BD00207047D8
:102390000168896851F00101006881607047016837
:1023A0008968490849000068816070474169496847
:1023B00051F002014069416070474169496831F05C
:1023C000020140694160704738B504000D00C4F84F
:1023D0002824C4F82C34D4F82804C068C068FFF757
:1023E00043FD2A00D2B214F11001200000F09EFB40
:1023F00014F11000FFF7D3FF14F11000009094E8DF
:102400000F0000F00EFC200000F0C4F8002114F1D1
:10241000100000F0CEFC200000F0C8F814F110000D
:10242000FFF7B6FF200000F0AEF8012084F8CE00E0
:1024300031BD38B58C788B882200D2B2D209D2B2A5
:10244000002A0BD014F07F051C22554300EB050237
:10245000D032157855F0800515700BE02500EDB2EF
:102460001C22554300EB050212F51D72157815F07C
:102470007F051570157864F3030515709380064B7E
:10248000C97811F0030153F821105170110000F0C8
:1024900062F9002032BD0000F45B000880B50A003C
:1024A000D2B2D209D2B2002A06D011F07F011C228A
:1024B00051430144D03105E0C9B21C2251430144CB
:1024C00011F51D7100F095F9002002BD10B511F055
:1024D0007F011C246143014411F51D718A60CB60AA
:1024E00000230B610379012B00D18A6100F04CFAC3
:1024F000002010BD10B511F07F011C246143014480
:10250000D0318A60CB6000230B610379012B00D1AD
:102510008A6100F0A2F9002010BD80B500220A00F7
:10252000D2B2D209D2B2002A06D011F07F011C2209
:1025300051430144D03105E0C9B21C22514301444A
:1025400011F51D7101228A7000F06FFA002002BDA2
:1025500080B500220A00D2B2D209D2B2002A06D037
:1025600011F07F011C2251430144D03105E0C9B272
:102570001C225143014411F51D7100228A7000F0A4
:1025800074FA002002BD80B5FFF717FF032000F0AA
:10259000ADFC01BD80B5FFF709FF032000F0A6FCEC
:1025A00001BD000089B200684162704738B504007F
:1025B0000020D4F8C81008606069006830F4C0508A
:1025C0006169086060690068616908606069006845
:1025D0008008800061690860207801281DD1606949
:1025E000006850F0030061690860802114F1100058
:1025F000FFF7D8FF00250CE0DFF8F8042900C9B286
:1026000030F811202900C9B214F1100000F0A2FB2B
:102610006D1C2800C0B20428EED3102114F1100064
:1026200000F07BFB14F1100000F087FB00206169D3
:1026300008610020616948615FF0FF30616988616D
:1026400000206169C861002040E000220300DBB285
:1026500004EB83035B6B1A602AE000210200D2B214
:1026600004EB8202D26911600100C9B204EB81015E
:10267000C96900220A61FF210200D2B204EB820282
:10268000D26991600200D2B204EB8202526B1268EE
:10269000002ADAD50200D2B204EB8202526B126831
:1026A00052F090420300DBB204EB83035B6B1A60D1
:1026B0000200D2B204EB8202526B002313610200CB
:1026C000D2B204EB8202526B9160401C0100E278AE
:1026D000C9B2914216D20100C9B204EB8101C969A5
:1026E00009680029B9D50100C9B204EB8101C969A3
:1026F000096851F090410200D2B204EB8202D26923
:102700001160B1E76069006950F01000616908610B
:10271000200000F002F8002032BD5FF0FF310269B6
:1027200051607FF0804102695161DFF8CC1302698A
:1027300091610179002905D10169896951F0100180
:102740000269916101698A69DFF8B0130A4300697F
:1027500082610020704778B40022002200920B783A
:1027600013F00F030A78D2B2D209D2B2002A08D0ED
:102770001A00D2B200EB8202D46901229A40009280
:1027800009E01A00D2B200EB8202546B012513F16A
:102790001002954000952268120421D42568D84A79
:1027A000154025601A00D2B2002A09D14269926808
:1027B0002568D44E12F00602B25C1543256003E092
:1027C00025688A881543256022684978DBB29B0515
:1027D00053EA814343F0805353F40043134323608F
:1027E00000994269D26911434069C161002072BCFD
:1027F000704700220A7812F00F020978C9B2C9099D
:10280000C9B200290FD0012191401300DBB200EBC7
:102810008303DB691B6833F40043D2B200EB82020E
:10282000D269136011E0012312F1100113FA01F1D2
:102830001300DBB200EB83035B6B1B6833F40043D4
:10284000D2B200EB8202526B13604269D26932EA63
:1028500001014069C161002070477CB500240A78FD
:1028600012F00F021300DBB200EB8303DB691B687D
:1028700001931300DBB200EB8303DB691B69009358
:10288000009B13F060430093CB68002B04D1009BA6
:1028900053F40023009326E01300DBB2002B0CD18D
:1028A000CB688D88AB4201D2CB6800E08B88CB60CF
:1028B000009B53F4002300930AE0009BCD688E88B0
:1028C000AD196D1E8E88B5FBF6F553EAC54300932E
:1028D000009DCB681D4300954B78012B03D1009BD5
:1028E00053F0005300931300DBB200EB8303DB696A
:1028F000009D1D614B78012B0ED143699B68C3F38A
:102900000023002B04D0019B53F08053019303E07C
:10291000019B53F0005301930379012B06D113005F
:10292000DBB200EB8303DB698D695D61019B53F0D2
:1029300004430193019B1500EDB200EB8505ED69A1
:102940002B600379002B1CD1019B1500EDB200EB2D
:102950008505ED692B604B78012B0BD0C9680029E8
:102960000FD04169496B012313FA02F20A4340690F
:10297000426306E0CB689BB2D2B28968103000F0A7
:10298000ADF92000C0B276BDF0B400220C7814F08E
:102990000F042300DBB200EB83035B6B1D68230095
:1029A000DBB200EB83035B6B1E6916F06046CB68FD
:1029B000002B03D02300DBB2002B04D18B881E43F5
:1029C00056F400260BE0CB688F88DB195B1E8F88DE
:1029D000B3FBF7F756EAC7468B885F433E432300B5
:1029E000DBB200EB83035B6B1E610379012B06D125
:1029F0002300DBB200EB83035B6B8E695E614B7877
:102A0000012B07D1C978002902D055F0005501E00B
:102A100055F0805555F00445E4B200EB8400406B5E
:102A200005601000C0B2F0BC704700220A7812F0B6
:102A30000F020978C9B2C909C9B200290BD0D2B2B4
:102A400000EB8200C0690168002908D5016851F0D7
:102A50008041016003E0D2B200EB8200406B01686C
:102A600051F4001101600020704700220B7813F030
:102A70000F030A78D2B2D209D2B2002A04D0DBB254
:102A800000EB8300C06903E0DBB200EB8300406B26
:102A9000026832F4001202604A78032A02D04978B0
:102AA000022903D1016851F0805101600020704774
:102AB0000022426913694269526BCA40D20112F086
:102AC00080021A43C9B200EB8100C06980681040DF
:102AD00070470D49426B11610179012909D100F25A
:102AE0001C41426B5161416B096851F08021406B80
:102AF00001607047BC0000200008008008303C00E6
:102B000000F833FC605C000818000860C1790029F7
:102B10000BD041698968C90707D5D0F8C810096882
:102B200089088900D0F8C8000160704730B5AFB09F
:102B300004000D0000202071022060702270D2B2CB
:102B4000012A29D15FF0A040E0600820A070042095
:102B5000E070022060710120A0710020E0716846E1
:102B6000BC2100F03BFAE0680090E06810F50060DE
:102B70000190E06810F580600290E06810F58860D0
:102B80001E90E06810F560602E9028006946BC2217
:102B9000FFF7AAF800201AE0012040E0E1680200F7
:102BA000D2B211EB421111F510610200D2B205EB65
:102BB0008202D160E1680200D2B211EB421111F53C
:102BC00030610200D2B205EB82025162401C01006A
:102BD000E278C9B29142E1D300211AE0E0680A002C
:102BE000D2B210EB421010F5A0600A00D2B205EB91
:102BF0008202D063E2680B00DBB24FF4805000FB2E
:102C0000032212F580520800C0B205EB8000C267B3
:102C1000491C0800A278C0B29042DFD300202FB038
:102C200030BD1FB5069C9DF8050001281FD1206806
:102C3000806B30F48030216888639DF8060000289E
:102C400005D02068806B50F480102168886320686C
:102C5000C168214801402068C1602068C06830F424
:102C600080102168C860200000F0BEF821E02068D4
:102C7000C06850F040002168C860200000F0B4F83F
:102C80002068806B50F45020216888632068806B36
:102C900050F40010216888639DF80600002805D0D4
:102CA0002068806B50F4801021688863142000F045
:102CB0001DF99DF8040001280BD12068806830F0D0
:102CC0001E00216888602068806850F02A00216812
:102CD0008860002004B010BDBFFFDFFF9BB2DB1C8B
:102CE0009B08D2B200EB8200C26F02E0086810605D
:102CF000091D1800431E0028F8D10020704792B229
:102D0000D21C9208C36F02E018680860091D100009
:102D1000421E0028F8D10800704780B5C9B2890169
:102D200051F0200102681161016809698906FBD42C
:102D3000032000F0D6F8002002BD80B51021026803
:102D4000116101680969C906FBD4032000F0C9F8C4
:102D5000002002BD70B403685B6A0C00E4B2002C72
:102D600005D192B253EA0243006883621FE004680F
:102D7000A46A13EB1443002409E005682600F6B2A8
:102D800005EB8605D5F8045113EB1543641C2500AB
:102D9000EDB20E00F6B2761EB542EED30068C9B2AF
:102DA00000EB810092B253EA0243C0F8003170BCDC
:102DB00070470268D26832F0C0420368DA600A00E5
:102DC000D2B2002A06D10168C96851F0804100687A
:102DD000C16008E0C9B2012905D10168C96851F094
:102DE00000510068C160704780B50168096951F001
:102DF00001010268116101680969C907FBD4032058
:102E000000F06FF801BD000080B5002000F02BF944
:102E10006A49884207D10320694908805FF480002D
:102E2000684908601EE06849884206D10520644967
:102E3000088000206349086014E06449884207D193
:102E400007205F4908805FF440005E49086009E0A0
:102E50005F49884206D10920594908805FF4000083
:102E6000584908605748006800F0F5F840F20C50E7
:102E700000F0B8F801BD80B54FF4A06000F094F9FF
:102E800000220221432000F09CF940F21C7000F067
:102E9000A9F85FF4802000F040FA002200215FF4DE
:102EA000802000F0E9F95FF4802000F023FA00228E
:102EB00001212A2000F085F901BD80B500215FF0D5
:102EC000006000F0C7F94FF4A06000F06DF9002237
:102ED00001211D2000F075F940F2017000F082F828
:102EE00001BD80B5022100F01EF801BD80B50121B1
:102EF00000F019F801BD10B5364C0121200000F09A
:102F00009AFA00280ED00121200000F0A2FA3249DE
:102F10000868002803D00868401E086002E020000E
:102F200000F062FA10BD10B52B4C20600800C0B252
:102F300000F007F820680028FCD1264800F054FA79
:102F400010BD38B584B00500224C200000F04CFACA
:102F50000121200000F067FA2800C0B2022802D147
:102F60000B20029005E0EDB2012D02D142F6DF60A8
:102F7000029013480088ADF800000020ADF8020070
:102F80000020ADF804000020ADF80C0000208DF802
:102F90000E006946200000F0CDF90121200000F06C
:102FA00058FA200000F025FA0121200000F034FA40
:102FB000200000F014FA05B030BD0000006CDC0207
:102FC000D40100207048002000A24A0400D8B805AF
:102FD000000E2707000400406C480020002200F08B
:102FE0003DBA000010B4DFF89C21010009B212EBD9
:102FF00091110B68012410F01F018C40234300B293
:1030000012EB9012136010BC704710B4DFF87421FB
:10301000010009B212EB91110B68012410F01F019D
:103020008C40234300B212EB9012136010BC704727
:1030300010B4DFF85021010009B212EB91110B68B6
:10304000012410F01F018C40A34300B212EB901238
:10305000136010BC7047DFF83021116831F4400173
:1030600008431060704770B588B00500002404A8BC
:1030700047491022FEF738FE02A84649D1E900234D
:10308000C0E9002368464449D1E90023C0E9002390
:103090003D490868C0F38100002803D0022805D00C
:1030A00002D345E03D4A44E03C4A42E0086810F45F
:1030B0008030B0F5803F23D1344E306810F080402E
:1030C000002801D1354A00E0354A306810F48030DC
:1030D000B0F5803F0DD13068C0F30310401C336859
:1030E000C3F303239B1C112B00D11423B2FBF0F27A
:1030F0005A43306810F00F00401CB2FBF0F300E0C0
:10310000284B0868C0F383400A68920001D550F04C
:1031100010000F2801D2801C00E0401C00FB03F2CD
:103120000F2804D106221800400802FB030200E029
:103130001A4A0868C0F3031004AB1B5C1000D840A7
:103140000B68C3F3022302AEF65C0300F340096888
:10315000C1F3C2216E46765C0100F140EDB2002D54
:1031600005D0022D07D004D3032D06D007E01400AC
:1031700005E0040003E01C0001E00C00FFE7200074
:1031800008B070BD00100240041002402C10024034
:10319000B45B0008345C00083C5C000800127A0054
:1031A000006CDC0200093D0010F007002C4B1A688F
:1031B0004FF6FF010A402B4951EA00210A431A60E9
:1031C000704770B504000D0016000020002000209C
:1031D0002348006810F4E060B0F5407F17D0B0F5E8
:1031E000806F11D0B0F5A06F0BD0B0F5C06F05D0D7
:1031F000B0F5E06F0ED10020042111E00120032181
:103200000EE0022002210BE00320012108E004204F
:10321000002105E04FF4A060FFF7C6FF0220022165
:10322000EDB2D0F104008540F6B20F20D1F10401D7
:10323000C840064035432D010B482100C9B2455412
:10324000012114F01F0081400848E4B2641140F8E5
:10325000241070BD064A11400843064908607047B3
:103260000CED00E00000FA0500E400E000E100E001
:1032700080FFFF1F08ED00E0F0B4294C2368834372
:103280002360284D2B6883432B60274E336883438C
:103290003360264B1F6887431F60C9B2002902D0E4
:1032A000012904D007E021680143216003E0296877
:1032B00001432960FFE7D2B2002A03D0022A10D0CE
:1032C00008D315E0316801433160196831EA000024
:1032D00018600DE031688143316019680843186057
:1032E00006E0316801433160196808431860FFE760
:1032F000F0BC70470A490A681043086070470C49DF
:1033000009680140064A12681040002903D00028CD
:1033100001D0012000E00020704705490860704797
:103320000004014004040140080401400C04014071
:103330001404014010B40A8810F128031A60DFF861
:10334000D020904212D0B0F1804F0FD0DFF8AC30D7
:1033500098420BD0DFF8A830984207D0DFF8A430AD
:10336000984203D0DFF8AC3098420FD1036833F0B5
:103370007003036003688C7814F0600423430360D7
:1033800003680C7914F01004234303608B6810F178
:103390002C042360DFF8703098420DD0DFF86C30D9
:1033A000984209D0036833F44073036003688C8942
:1033B00014F4407423430360904203D0DFF8542098
:1033C000904203D1897B10F13002116010F1140199
:1033D000096851F001011430016010BC70470168A8
:1033E00051F001010160704701684908490001601E
:1033F0007047016851F0800101607047000400408F
:1034000000080040000C0040001000400014004084
:10341000002C01400034014010F10C0212681143ED
:103420000C300160704710F10C02126832EA0101A1
:103430000C300160704710F10C0212680A40103025
:103440000068084203D0002A01D0012000E00020DB
:103450007047C943103001607047000000B500BFDD
:10346000130096469446103928BFA0E80C50FAD8AD
:103470005FEA417C28BF0CC048BF40F8042BC90755
:1034800028BF20F8022B48BF00F8012B00BD000028
:10349000416989694069C0690140C1F305407047CD
:1034A0000200C9B202EB8100406B80685169496932
:1034B000084070470100486980694969C969084046
:1034C00010F03F00704738B5050028694069C00713
:1034D0005CD428694469286980690440002C55D06F
:1034E000200302D5280000F052F8600302D528001E
:1034F00000F0AAF8200502D5280000F0D3F9002C2E
:1035000006D5032085F8CE005FF0004029694861A8
:1035100020070CD5D5F82C04C069002804D0280059
:10352000D5F82C14C9698847082029694861E00644
:1035300002D5280000F0CBF8E00402D5280000F006
:1035400026F9A00402D5280000F073F9E0020DD599
:10355000D5F82C04006A002804D02800D5F82C14D3
:10356000096A88475FF4801029694861A0020DD577
:10357000D5F82C04406A002804D02800D5F82C1473
:10358000496A88475FF400102969486131BD7CB5FC
:103590000500002000262800FFF77AFF04004FE016
:1035A000E0074BD53100C9B22800FFF779FF009042
:1035B0000098C00735D53000C0B205EB8000406BE5
:1035C000012181602879012818D13000C0B205EBB3
:1035D0008000406B006901901C203100C9B241435A
:1035E00029443200D2B200FB02F02844B0F878023D
:1035F000019A5203520B801AC1F884023100C9B2F9
:10360000280000F065FA287901280AD13000C0B2FC
:10361000002806D195F82404062802D12800FFF7D7
:1036200058FA0098000709D5280000F00EFA30007B
:10363000C0B205EB8000406B082181606408761CF5
:10364000002CADD1012076BD7CB505000020002600
:103650002800FFF72FFF040035E0E00731D53100E7
:10366000C9B22800FFF724FA00900098C00719D5C6
:103670003000C0B205EB8000C069012181603100DB
:10368000C9B2280000F069FA287901280AD130006F
:10369000C0B2002806D195F82404052802D12800DC
:1036A000FFF717FA009800060BD53100C9B22800C1
:1036B00000F031F93000C0B205EB8000C069802114
:1036C00081606408761C002CC7D1012076BD7CB5D2
:1036D000050000200020002000200090286980695B
:1036E00030F01000296988612869006A009000990B
:1036F00011F00F01C9B21C20414305EB010010F588
:103700001D760098C0F30A140098C00B10F0030057
:103710000099490C11F00F01012908D0022907D0A6
:10372000032915D0042914D0062913D027E026E058
:10373000002C0CD0220092B2B16815F11000FFF7F6
:10374000DEFAB0682044B06030692418346116E0B5
:1037500015E014E0317811F00F0F0FD1082C0DD1C6
:10376000C0B200280AD1220092B205F21C4115F124
:103770001000FFF7C4FA306924183461FFE72869A4
:10378000806950F0100029698861012076BD10B56C
:103790000400606940684008400061694860002199
:1037A00014F11000FFF7B9FA002009E0FF2104EB43
:1037B0008002D269916004EB8002526B9160401CE0
:1037C000E1788842F2D35FF0FF30616988615FF091
:1037D00001106169C861092061694861012061695E
:1037E00008616069006830F4FE606169086020006B
:1037F000FFF76FF94FF480502169486114F51D708F
:1038000025491C22FEF770FA14F51D712000FEF701
:10381000A2FF14F1D00021491C22FEF765FA14F131
:10382000D0012000FEF797FF012084F8CE00012090
:1038300010BD41698968C1F341014269526832F49F
:10384000807243695A604269526852F480724369D7
:103850005A600269D26832F470520369DA60104A21
:10386000C9B2515C032908D1032141700169C968BB
:1038700051F410510269D16007E0022141700169E1
:10388000C96851F4A0510269D1604FF40051006938
:103890004161012070470000A05A0008BC5A00088E
:1038A000645C00081CB50400E0798DF802006069D2
:1038B000806810F001008DF8010094F8CE00032814
:1038C00001D1012000E000208DF8000094F8CE0026
:1038D00084F8CF00042084F8CE009DF80200002870
:1038E00013D09DF8010000280FD09DF8000000289B
:1038F0000BD0D4F8C800006850F00300D4F8C8100A
:1039000008600021012000F07BF94FF4006021697C
:103910004861012016BD2DE9F04104000D001C2076
:1039200000FB05F0204410F1D006F068D6F81080B6
:10393000B0EB0808B088404501D2B6F8048018F111
:1039400003085FEA980824E0F0683769C71BB0886D
:10395000B84200D2B78817F103085FEA98083B0025
:103960009BB22A00D2B2B16814F11000FFF7B6F989
:10397000B0683844B06030693F1837613069F16829
:10398000884206D16069406B0121A9408843616982
:10399000486304EB8500C069806980B2404503D369
:1039A0003069F1688842CFD30120BDE8F08138B595
:1039B000040014F1D0056B69AA6800212000FEF70D
:1039C00099FDA8886969884203D2012084F82404FB
:1039D00002E0022084F82404002032BD38B504003F
:1039E00014F51D756B69AA6800212000FEF76EFDB5
:1039F000A8886969884203D2032084F8240402E07D
:103A0000042084F82404002032BD10B504000520F1
:103A100084F824040023002200212000FEF76AFD20
:103A20002000FFF756F8002010BD10B50400062056
:103A300084F824040023002200212000FEF746FD24
:103A40002000FFF746F8002010BD3EB50400012518
:103A5000684604F21C410822FEF736F99DF8000082
:103A600010F06000002804D0202808D040280CD096
:103A700011E069462000FEF7AAF905000BE069464F
:103A80002000FEF7ACF9050005E069462000FEF7CE
:103A9000B5F90500FFE7EDB2002D13D1BDF8060022
:103AA000002803D12000FFF7B0FF0FE09DF80000D1
:103AB000000603D52000FFF77AFF07E02000FFF79C
:103AC0008DFF03E069462000FEF79AF900203EBD15
:103AD00038B504000800C0B200282DD114F51D75BA
:103AE00094F82404032802D004280FD023E0696945
:103AF000A888091A69612079012803D1A868A988D2
:103B00000844A8602000FFF769FF24E094F8CE0085
:103B100003280AD1D4F82C048069002805D000219C
:103B20002000D4F82C24926990470020686120007E
:103B3000FFF76BFF0FE00EE0D4F82C04806900283B
:103B400009D094F8CE00032805D1C9B22000D4F8DA
:103B50002C2492699047002032BD38B5040008003B
:103B6000C0B200283BD114F1D00594F824040128F8
:103B700002D002280FD031E06969A888091A69616A
:103B80002079012803D1A868A9880844A8602000EA
:103B9000FFF70DFF32E094F82504002809D0002338
:103BA000002200212000FEF7A5FC002084F8250457
:103BB00013E094F8CE0003280AD1D4F82C0440690D
:103BC000002805D000212000D4F82C245269904709
:103BD000002068612000FFF728FF0FE00EE094F856
:103BE000CE0003280AD1D4F82C044069002805D05F
:103BF000C9B22000D4F82C2452699047002032BD6D
:103C0000F0B4244A13689B089B00136013681843A0
:103C10001060214A106850F0040010601F4B204CC7
:103C2000206818601F4D286858601F4E30689860E3
:103C30001E4F3868D860D4F800C01D4810EA0C0C3C
:103C4000C4F800C01B48DFF870C0CCF800007FF457
:103C5000E060DFF868C0CCF800005FF0FF30DFF80C
:103C600060C0CCF80000C9B2002901D130BF02E029
:103C700040BF20BF20BF186820605868286098683F
:103C80003060D8683860106830F004001060F0BC14
:103C9000704700000070004010ED00E05448002024
:103CA00010E000E000E100E004E100E008E100E0F5
:103CB000040001003DF87FFF80E100E084E100E0C6
:103CC00088E100E080B51300FF2200929BB20A0059
:103CD000010089B2DFF8C00300F001F802BD1FB592
:103CE000069C02949BB2019300920023002289B2A9
:103CF00000F0ADF804B010BD3EB5069CFF2502955E
:103D0000A4B20194009313009BB20A0092B2010086
:103D100089B2DFF8840300F09AF83EBD80B5130045
:103D2000FF2200929BB20A00010089B2DFF868030B
:103D300000F001F802BD2DE9F84F8B4691469A46F6
:103D400001240020DFF854532868002804D05FF0D5
:103D5000FF312868FDF735FE0A9E00F0A5F907003F
:103D6000DFF834830021404600F074FA00973300F6
:103D7000012240F20161404600F035F9002801D0EF
:103D8000022457E0404600F081FA009733000022F9
:103D90004FF4A061404600F026F900284AD1594668
:103DA000012289B2404600F061FA0021404600F04D
:103DB00045FA40F2015B0097330000225946404625
:103DC00000F011F9002835D1594609B2404600F0FB
:103DD0007EFA00973300002240F20251404600F084
:103DE00002F9002826D1002406E0404600F05CFAE3
:103DF00009F80400641C641C504680B2844209D255
:103E000000973300002240F20651404600F0EBF8E4
:103E10000028EAD0404600F03EFA9F48006880053E
:103E2000FBD40121404600F015FA0121404600F084
:103E300005FA00242868002805D00023002200216C
:103E40002868FDF77BFB2000C0B2BDE8F28F2DE9AA
:103E5000F84F894614009A465FF0010B8F4D286891
:103E6000002804D05FF0FF312868FDF7AAFD0C9F01
:103E700000F01AF98046884ECDF800803B00012200
:103E800040F20161300000F0AEF8002802D05FF08F
:103E9000020B5CE0300000F0F9F9CDF800803B0047
:103EA00000224FF4A061300000F09DF800284ED1B0
:103EB00049467FF0010289B2300000F0D7F940F2A4
:103EC0000159CDF800803B0000224946300000F047
:103ED0008AF800283BD1494609B2300000F0F7F9D2
:103EE00040F20759CDF800803B00002249463000DF
:103EF00000F079F800282AD15246100080B200283C
:103F000008D02100CDF800803B0092B289B2300089
:103F100000F035F85FF0000BDDF828A00B9C01E005
:103F20001BF1010B200080B283450ED21AF80B1052
:103F3000300000F0B5F9CDF800803B000022494682
:103F4000300000F050F80028EAD05FF0000B58462F
:103F5000C0B2022806D0300000F09DF94E4800683B
:103F60008005FBD42868002805D00023002200210A
:103F70002868FDF7E3FA5846C0B2BDE8F28FF8B5FD
:103F800004000D001E00069F92B2012A05D12900EF
:103F9000C9B2200000F084F917E0290089B2090AAB
:103FA000C9B2200000F07CF900973300002240F2F3
:103FB0000751200000F017F8002801D0032011E07D
:103FC0002900C9B2200000F06BF9009733000022ED
:103FD00040F20751200000F006F8002801D003202D
:103FE00000E00020F2BD2DE9F04105000E001700B1
:103FF0001C00DDF818803000010009B2280000F034
:1040000057F93900C9B288420CD114F1010FF2D02E
:1040100000F04AF8B0EB0800844201D3002CEAD14A
:10402000032000E00020BDE8F08110B500F00DF89D
:1040300000F015F800F01BF8184C2068002803D198
:104040000120FDF76EFA206010BD80B540F20360DC
:10405000FEF7C8FF40F21570FEF7C4FF01BD80B542
:10406000C02303221C210E4800F058F901BD10B5F1
:10407000094C00220B49200000F01CF8002300220C
:104080000021200000F0CCF8200000F0FAF8012117
:10409000200000F0D3F810BD005400407C48002000
:1040A000000C0140A086010001480068704700BF75
:1040B0007448002070B506000D001400002D00D1DA
:1040C000FEE70220FEF7CFFFDFF84412B0FBF1F26B
:1040D0003F2A00D33F22311D096889098901114314
:1040E000331D1960DFF82C128D4224D2DFF8201224
:1040F000B0FBF1F1491C3F2904D33F2116F1200206
:10410000116009E0032904D2022116F12002116096
:1041100002E016F1200211606900B0FBF1F0042802
:1041200000D2042016F11C0109680005000D0843A7
:104130001C36306073E0DFF8E0118D4238D24FF466
:1041400096714A434FF47A71B2FBF1F1491C16F1B2
:1041500020021160002C0CD103214D43B0FBF5F07F
:1041600016F11C01096831F4804116F11C0211603E
:104170000BE019214D43B0FBF5F016F11C01096865
:1041800051F4804116F11C021160010501D150F07B
:10419000010016F11C01096851F4004116F11C02DE
:1041A000116016F11C01096808431C36306036E0C6
:1041B00078214A434FF47A71B2FBF1F1491C16F1B0
:1041C00020021160002C0CD103214D43B0FBF5F00F
:1041D00016F11C01096831F4804116F11C021160CE
:1041E0000BE019214D43B0FBF5F016F11C010968F5
:1041F00051F4804116F11C02116016F11C0109688E
:1042000051F4004116F11C02116016F11C010968FD
:10421000084316F11C01086001209036306070BD23
:1042200010B40024046834F00204214301609B05AB
:104230009B0D1A430830026010BC7047012904D15D
:10424000016851F48061016003E0016831F480612C
:1042500001607047002904D1016851F400610160D8
:1042600003E0016831F400610160704712F1020F50
:1042700002D14908490001E051F00101103001600C
:104280007047016851F0010101607047016851F405
:10429000807101607047016851F4007101607047DE
:1042A000C9B210300160704710300068C0B270476A
:1042B0000A0012B2C2F389121018006811F01F012F
:1042C000C840C00701D5012000E0002070470A0067
:1042D00040F2015312B29A4205D110F1140109685B
:1042E0001830006812E00A0012B2C2F389131B18DA
:1042F0000A0012B2C2F3891210180068012211F0EC
:104300001F0112FA01F130EA010119607047000043
:1043100040420F00A1860100811A0600F0B400247B
:10432000002411F00F04CD060DD5042A09D154F054
:10433000030410F13C0212681A4310F13C052A6094
:1043400001E022431400002523E048291FD1012267
:10435000AA401A4010F110073A6018E01A00EA402B
:10436000D20715D506680F272A00D2B292009740CF
:10437000BE432A00D2B2920014FA02F21643282950
:10438000E3D10122AA401A4010F114073A600660F6
:104390006D1C2A0092B2082AE0D3082527E048299C
:1043A00022D10122AA401A4010F110073A601BE006
:1043B0001A00EA40D20719D5021D16680F272A00F5
:1043C000083AD2B292009740BE432A00083AD2B2CD
:1043D000920014FA02F216432829E0D10122AA40E1
:1043E0001A4010F114073A60021D16606D1C2A0075
:1043F00092B2102ADCD3F0BC704710B400220F2315
:1044000011F00302D2B2920013FA02F20B00DBB2F7
:10441000042B0EDA224B1C6834EA02021A601A6876
:10442000C0B211F00301C9B289008840104318607E
:1044300033E00B00DBB2082B0EDA1A4B1C6834EAAF
:1044400002021A601A68C0B211F00301C9B28900F1
:1044500088401043186020E00B00DBB20C2B0EDA12
:10446000114B1C6834EA02021A601A68C0B211F0DB
:104470000301C9B289008840104318600DE00B4B5E
:104480001C6834EA02021A601A68C0B211F0030113
:10449000C9B2890088401043186010BC7047000002
:1044A000080001400C0001401000014014000140D0
:1044B000DFF880030178FF2907D00078022801D1B6
:1044C000022000E00320C0B200E0FF2070471CB5CE
:1044D000AA208DF80000AA208DF801006C46552016
:1044E000A07055208DF80300FFF7E2FF0100C9B26C
:1044F000FF2902D0A421617103E002212171A821CA
:104500006171022121718DF8060007226946DFF8EA
:10451000280300F0E6F913BD00B585B0AA208DF898
:104520000000AA208DF8010055208DF802005520CA
:104530008DF803000D208DF8040034208DF805005F
:1045400000200CE0BD490200D2B2D2F10C02521E92
:10455000895C6A460300DBB21A449171401C010079
:10456000C9B20C29EEDB12226946B34800F0B9F952
:1045700005B000BD1FB50B22AA208DF800006846CB
:10458000AA2141705521817055218DF80310A94948
:104590000978FF2916D006210171242141710421D7
:1045A000817100210800C0B2042812DAA44B08006F
:1045B000C0B21B1A18786B460C00E4B22344D871C1
:1045C000491CEFE7072202210171282141710121D5
:1045D0008171D2B292B26946974800F082F91FBD4C
:1045E000E0B5AA208DF80000AA208DF80100552022
:1045F0008DF8020055208DF8030003208DF804008B
:1046000044208DF80500FFF753FF8DF806000320C6
:104610008DF8070008226946874800F062F907BD57
:10462000E0B5AA218DF800106946AA224A705522E9
:104630008A7055228DF80320C0B208280BDB0220B7
:1046400008715820487102208871072269467A480B
:1046500000F047F908E00120087154204871062253
:104660006946754800F03DF907BD7CB50624AA20CF
:104670008DF800006D46AA2068705520A87055205E
:104680008DF80300FFF714FF06003000C0B2FF28CA
:1046900004D0012028716420687106E007240220FC
:1046A0002871682068710120A871E4B2220092B2DA
:1046B0006946614800F015F9F6B2FF2E03D0614853
:1046C0000068FBF71DFF73BDE0B5AA208DF8000060
:1046D000AA208DF8010055208DF8020055208DF894
:1046E000030001208DF8040074208DF805000622D7
:1046F0006946514800F0F5F852480068FBF779FE2A
:1047000007BD2DE9FC410500012400200626AA2052
:104710008DF800006F46AA2078705520B87055209B
:104720008DF8030001203871C420787100F000FA80
:104730003C2000F04FFADFF81081404600F00DFAFF
:10474000002812D13C2000F045FA2900404600F034
:1047500025FA002809D13C2000F03CFA00F0F6F9D7
:1047600039480068854200D10024E4B2002C06D00C
:1047700002203871C82078710120B8710726F6B27E
:10478000320092B269462C4800F0ABF8BDE8F381E4
:1047900000B585B001E0FFF7EDFE5FF0FF3269463E
:1047A0002A480068FDF760F80128F6D19DF801005D
:1047B0005528F2D19DF802005528EED19DF803004E
:1047C000AA28EAD19DF80400AA28E6D19DF80000A5
:1047D0009DF80510491D8842DFD19DF8060022286A
:1047E000D9D032280CD0422810D0522811D06228BB
:1047F00014D0722815D0A22805D0C22814D018E0F1
:10480000FFF78AFEC9E7FFF762FEC6E7FFF7E8FE9B
:10481000C3E79DF80700FFF703FFBEE7FFF725FF9B
:10482000BBE7FFF751FFB8E7DDF80700FFF769FFC7
:10483000B3E7B2E7D7010020D8410020ACF7FF1F53
:1048400003C00008A048002000C00008A4480020C1
:10485000D0F83404002809D0C9B2002903D00021BF
:1048600080F8501002E0012180F85010704770B5B8
:1048700086B016000025D0F83444002C01D1022067
:104880002DE0216C00290CD04023226C0321FDF780
:104890001DFE3068A064206C0078002800D102253D
:1048A00000E002252800C0B2002816D101200090A7
:1048B000A06C8DF8040094F84820216C0DF10504DB
:1048C0002000FDF701FA00236A4601A93448006878
:1048D000FCF7FFFE012800D00225280040B206B0F8
:1048E00070BD10B5D0F83444002C01D1022015E081
:1048F00094F85030002B01D001200FE013009BB240
:10490000002B0AD0616492B2E264012184F8501055
:10491000E36C626C8121FDF7EDFD002010BD70B5E8
:104920000400204D15F13C012000FDF782FD15F13A
:1049300035012000FDF77DFD15F125012000FDF773
:1049400078FD194D01206870012028700020E8646E
:1049500015F1500015490722FDF7B6F9C4F8305497
:10496000134E3664002070644020B0640020F06470
:10497000002086F85100002086F85000C4F8346406
:104980004023AA1C03212000FDF7A0FD4023320094
:1049900003212000FDF79AFD002070BD00000000FB
:1049A000A448002000590008B44600202C5C0008F0
:1049B0000C47002010B5040081212000FDF76EFD9A
:1049C00003212000FDF76AFD82212000FDF766FD2E
:1049D000002010BD10B4D0F8303410F1D0024C7863
:1049E000002C10D0012C0FD0022C0ED0032C0DD097
:1049F000042C0CD0202C0BD0212C13D0222C32D004
:104A0000232C31D031E030E02FE02EE02DE02CE0FF
:104A10004C78D0F82C044470C888506113F14200DF
:104A2000906022E0186D83F84200186D000A83F848
:104A30004300186D000C83F84400186D000E83F8D5
:104A4000450093F8540083F8460093F8550083F826
:104A5000470093F8560083F8480013F14200906035
:104A60000720506101E000E0FFE7002010BC704724
:104A700070B511F07F031C22534300EB030212F1C7
:104A8000D003D0F83044DA689D88B2FBF5F605FB18
:104A90001622002A08D1DA68002A05D00023002255
:104AA000C9B2FDF727FD04E0012121700121FFF7C4
:104AB000CFFE002070BD80B5D0F830340A00D2B2ED
:104AC000002A24D1D0F82C144978FF292DD093F84E
:104AD000421093F8432051EA022193F8442051EA0E
:104AE000024193F8452051EA0261196593F8461096
:104AF00083F8541093F8471083F8551093F8481032
:104B000083F85610FF21D0F82C0441700DE00122EB
:104B10005A70C9B21C2251430144D1F88412D9649D
:104B200013F14C020021FFF7A2FE002002BD00009D
:104B3000DFF8D8000068000607D5DFF8D400DFF8FA
:104B4000D4100160DFF8D01001607047DFF8BC00BE
:104B5000016851F080010160704738B504005FF4CE
:104B6000801000F05FF80100C9B2002914D1DFF80D
:104B70009C50286850F002002860DFF8A000046014
:104B8000286850F0400028605FF4801000F04AF878
:104B9000296831F002012960C0B232BD70B504004D
:104BA0000D005FF4801000F03DF80100C9B200294B
:104BB0000ED1DFF85860306850F001003060256099
:104BC0005FF4801000F02EF8316849084900316028
:104BD000C0B270BD124908607047002010490A68D1
:104BE000D20701D501200DE00A68D20601D50420C4
:104BF00008E00A68520701D5022003E009680907A6
:104C000000D50320C0B27047000000001020024011
:104C10000420024023016745AB89EFCD14200240F8
:104C20000C20024010B504000120FFF7D6FF641EDF
:104C30000100C9B2012901D1002CF6D10100C9B28D
:104C4000012900D10520C0B210BD000000B58FB011
:104C5000824800F031F9002211210420FCF71BFCEE
:104C60007F4908600AA87F491422FDF73DF800211A
:104C70000AA800F040F97C49086005A87B49142285
:104C8000FDF732F8002105A800F035F978490860F1
:104C9000684678491422FDF727F80021684600F09D
:104CA0002AF975490860754800F006F90FB000BD93
:104CB00080B5FBF765FC01BD80B56F480068FBF768
:104CC00098FB00F0B6F86E48BB2101706621417078
:104CD000BB2181706621C17000F02AF86249086822
:104CE000002802D00868FBF71EFB01BD80B500203C
:104CF000FFF74EFD01BD70B5614D2C1D614E307842
:104D0000022806D03078032806D1200000F021F9CF
:104D100002E0200000F051F90020E0700020207136
:104D2000307860710E2229005748FFF7DAFDE5E779
:104D30002DE9F84384B0524E371DB8460524684625
:104D400052491022FCF7D0FF0925DFF84491EA22EE
:104D50004946504800F0B0F808E04FF48B724946DD
:104D60004D4800F0A9F8C82000F066F9380000F0BE
:104D700024F900281BD0D8F800000028EDD0D8F87E
:104D8000000010F1010FE8D002203E4908704348AE
:104D900000F092F8002704E0F15D2EA000F08CF8FE
:104DA0007F1C102FF8DB2CA000F086F81FE03800E5
:104DB00000F0CFF80028D0D0D8F800000028CCD0E0
:104DC000D8F8000010F1010FC7D003202D4908705A
:104DD000334800F071F8002704E0F15D1DA000F0F9
:104DE0006BF87F1C102FF8DB1BA000F065F86E46F7
:104DF000A4207071234800788DF806008DF80740D4
:104E0000EDB22A0092B269461F48FFF76AFD2548B5
:104E100000F052F8002404E0315D0EA000F04CF8E0
:104E2000641C102CF8DB204800F046F805B0BDE803
:104E3000F08380B5FDF7E8FFFEF73FF81B4B1C4AF7
:104E400001211148FDF7C0FAFEF715F8194800F0E6
:104E500033F801BD257820000A000000D85A000868
:104E6000A4480020685B0008984800207C5B00088C
:104E70009C480020905B0008A0480020385A000899
:104E8000B0470020D7010020D8410020D45B0008A3
:104E9000C45B000878590008445900082C5B0008DE
:104EA000405B0008E45B0008545B000894000020AD
:104EB00084000020A45900080EB4C0B5024603A81F
:104EC00000210190009101AB0121044878440C308D
:104ED00000F0D2F806BC5DF810FB00BF190C000012
:104EE000010000200A0012B2842A03D009B2C91CB2
:104EF0000918080070473EB504000D00B4F9080019
:104F0000FFF7EEFF02A9019100902B00226992B2F7
:104F100021686068FBF71CF9012801D0002000E03F
:104F200002983EBD01B582B0012202A9DA20FEF747
:104F3000C9FE01226946DB20FEF7F0FE002805D0FD
:104F40009DF8000010F0FE008DF800009DF80000B4
:104F50000EBD3EB50500012402200021084350F09B
:104F600008008DF80400200080B2009001AB0122FF
:104F70003021DA20FEF7C0FE002803D0FFF755F8F5
:104F800000203EBD082000F057F80220FFF7CAFFBE
:104F9000C007F3D506208DF80400220092B201A9C3
:104FA000DA20FEF78FFE052292B22900DB20FEF701
:104FB000B5FE0028E2D10120E3E77CB5050001241D
:104FC000012650208DF80000320092B26946EC2094
:104FD000FEF778FE002801D0002423E0092000F02D
:104FE0002BF830208DF80000320092B26946EC2098
:104FF000FEF768FE002801D0002413E00020019095
:1050000003E000BF0198401C01900198C828F8D324
:10501000052292B22900ED20FEF780FE002801D083
:105020000024FFE72000C0B2012801D0FEF7FDFFF9
:105030002000C0B276BD000038B50400FFF734F898
:10504000050014F1010F02D0044800782418FFF77E
:105050002BF8401BA042FAD331BD00BFD60100207F
:1050600070B505461C000846164604D016F8011B0C
:10507000A847641EFAD170BD2DE9FC4383B0814678
:10508000884617461D4607E001233A4641464846F2
:10509000FFF7E6FF80467F1C3878E0B12528F3D182
:1050A0007978BF1C252912D058295AD0632915D0E8
:1050B000642918BF692918D06F2952D0702956D099
:1050C00073295BD0752918BF78294AD0E4E7404698
:1050D000C8478046E0E705B0BDE8F083286828604F
:1050E00050F8041B2860C9B2F1E72868286050F81E
:1050F000046B2860002E03D52D214046C84780460A
:1051000064216F2908BF082205D041F020007828CB
:1051100014BF0A2210220B246429304602D1002E2B
:1051200048BF4042B0FBF2FC02FB1C003030641E62
:10513000C3B23A2BA4BFA1F1510630180DF80400F8
:105140005FEA0C0001D0002CECDC0DEB0406D4F17E
:105150000B044046BDD016F8011BC847641EFAD1A7
:10516000B7E72868286050F8046B2860C9E728680A
:105170002860782150F8046B2860C2E7286828600E
:1051800050F8046B2860304600F00AF804004046EE
:105190009FD016F8011BC847641EFAD199E700009A
:1051A00000F10103810704D010F8011B820781B1CF
:1051B000FAD10268A2F10131914311F0803104BFAC
:1051C00050F8042FF6E709BAB1FA81F100EBD100EB
:1051D000401CC01A7047000070B504005B482100F5
:1051E000C9B230F91100FDF7FDFE594D594E2000AE
:1051F000C0B256F82030032210212000C0B255F86A
:105200002000FFF78BF82000C0B256F82000E4B26F
:1052100055F824101431086070BD4E490200D2B216
:1052200051F822104A4AC0B252F8200010300160F2
:10523000704748490200D2B251F82210444AC0B225
:1052400052F8200014300160704770B504000D0062
:1052500041482100C9B230F91100FDF7C3FE4FF4F7
:10526000C060FDF7BFFE3D482100C9B250F82130B3
:10527000032204213A482600F6B250F82600FFF730
:105280004DF8EDB2012D1FD1002202213548230037
:10529000DBB2C05CFDF795FF33482100C9B2415C29
:1052A00032482200D2B2805CFFF7A7F8304D0122CD
:1052B00000212000C0B255F82000FDF7DDFFE4B268
:1052C00055F82400FEF729F870BD70B504000020E1
:1052D0002848844201D1002505E02748844201D1B5
:1052E000012500E00225254830F91500FDF77AFE7A
:1052F000234830F91500FDF775FE224E224850F87C
:1053000025300322182156F82500FFF707F81F481B
:1053100050F825300322042156F82500FEF7FEFF41
:10532000200000F035F85FF4E131200000F06EF865
:105330000421200000F0C0F80821200000F0B2F89D
:10534000200000F0A7F870BD00000000040100205C
:10535000C4000020D40000202401002018010020F7
:105360000C010020400100203C01002038010020F9
:105370002C010020003801400044004000010020C2
:10538000E4000020F8000020E8000020F0000020E9
:1053900010B53B49884214D03A4988421AD03A495C
:1053A000884220D03949884226D0394988422CD1B8
:1053B00040F20E342000FDF728FE2000FDF738FEF5
:1053C00023E040F211442000FDF71FFE2000FDF70E
:1053D0002FFE1AE040F212442000FDF716FE2000D6
:1053E000FDF726FE11E040F213442000FDF70DFE0C
:1053F0002000FDF71DFE08E040F214442000FDF7F8
:1054000004FE2000FDF714FEFFE710BD38B50400D0
:105410000D0000200021002100212100184A9142A6
:105420000FD0184A914210D0174A914211D0174A12
:10543000914212D0164A914213D10320FDF713FE78
:105440000FE00220FDF70FFE0BE00220FDF70BFE40
:1054500007E00220FDF707FE03E00220FDF703FE50
:10546000FFE710EB5500B0FBF5F14FF6F070084088
:1054700011F00F01084380B20834206031BD0000F4
:105480000044004000480040004C004000500040F4
:105490000038014010F10C01096851F400510C3042
:1054A00001607047002210F10C02126832F008020D
:1054B00011430C3001607047002210F10C02126899
:1054C00032F0040211430C3001607047C905C90D68
:1054D000001D016070470A0012B2C2F38912101851
:1054E000006811F01F01C840C00701D5012000E08D
:1054F0000020704780B53B49086850F00100086003
:105500000020394A10600020384A10600A68384884
:1055100002400A605FF47F00364A1060086830F489
:105520008020086000F006F800215FF00060FDF7C1
:1055300091FE01BD80B500F001F801BD10B400225C
:1055400000202849086850F480300860521C086820
:1055500010F40030002803D14FF6FF708242F5D1DD
:105560000868800300D4FEE723480268D208D2000E
:1055700052F0030202601C4A10681060106810604C
:10558000106850F48060106013681C48034013607A
:1055900013681B4803431360144B1C6819480440EC
:1055A0001C60186840F4843050F0190018600868D6
:1055B00050F08060086008680001FCD5086850F071
:1055C0008070086008688001FCD510688008800041
:1055D0001060106850F00200106010680007FCD5E1
:1055E00010BC704700100240041002402C10024012
:1055F000FFFFF6EA0810024000200240FFFFC3DF71
:105600000000352000F0FEBF7047FEE7FEE7FEE732
:10561000FEE7704780B500F04FF8FBF740FA01282D
:1056200001D0FBF747FE01BD80B5FDF764FC01BD6D
:1056300080B51D48FDF747FF01BD10B51A4CE07954
:1056400000280CD0FFF756FF18480068FDF703FD4F
:1056500040F20C50FDF7C6FC2000FDF757FA5FF44E
:105660008020FDF75AFE10BD80B54FF40050FDF7C5
:1056700046FE002816D04FF40050FDF74EFE0C4AAF
:10568000106800280ED069461068FCF791F8009861
:10569000002807D05FF0805006490860BFF34F8FA5
:1056A000BFF36F8F01BD0000D8410020704800207B
:1056B0009048002004ED00E003480168034A127896
:1056C00089180160704700BF74480020D60100208F
:1056D000020052B2002A08D50901124A40B210F065
:1056E0000F00104400F8041C03E009010E4A40B208
:1056F0001154704780B5411EB1F1807F01D3012064
:105700000EE0401E094908600F215FF0FF30FFF7EF
:10571000DFFF0020064908600720064908600020D6
:1057200002BD000018ED00E000E400E014E000E03D
:1057300018E000E010E000E010B504000B4800683D
:105740004FF47A71B0FBF1F0FFF7D4FF002800D0DE
:10575000FEE7102C08D221005FF0FF30FFF7B8FF02
:1057600003480460002000E0012010BD4801002033
:105770007848002016034700690067006100440074
:10578000650076006900630065000000000000000D
:105790000000000000000000000000000000000009
:1057A00000000000000000000000000000000000F9
:1057B00000000000000000000000000000000000E9
:1057C00000000000000000000000000000000000D9
:1057D00000000000000000000000000000000000C9
:1057E00000000000000000000000000000000000B9
:1057F00000000000000000001A03470044003300CE
:1058000032002D004300440043005F00410043008C
:105810004D0000000000000000000000000000003B
:105820000000000000000000000000000000000078
:105830000000000000000000000000000000000068
:105840000000000000000000000000000000000058
:105850000000000000000000000000000000000048
:105860000000000000000000000000000000000038
:1058700000000000000000000000000080B50F20C4
:10588000FFF75AFF4FF44070FDF78EFC002000F048
:1058900009F8FFF7DBF9FFF70BFA4FF4FA60FFF7AF
:1058A000CBFBFAE780B501210120FFF7CEFC1248BF
:1058B000FFF70BFD0020FFF78FFC0020FFF7ADFC8A
:1058C0000120FFF789FC0120FFF7B3FCFEF7ADFBD9
:1058D0000A48FFF7F1FA01BD38B50400064D210072
:1058E000C9B22800FFF7F2FD07212800FFF7F3FDFA
:1058F0000028F9D0200032BD00380140F4590008DA
:105900000902430002010080320904000001020282
:1059100001000524001001052401000104240202F5
:1059200005240600010705820308000A0904010096
:10593000020A00000007050302400000070581027B
:10594000400000000D0A25733A6C696E653A2564C3
:10595000203A2074727920616761696E20746F202B
:1059600070726F62652073656E736F7220747970E8
:10597000652E0D0A000000000A25733A6C696E65F9
:105980003A2564203A2073746172742070726F62D9
:10599000652073656E736F7220747970652E0D0AC1
:1059A000000000000D0A5553422048616C20696ECA
:1059B0007465726661636520696E697420737563CE
:1059C0006365737366756C2E0D0A000010B5074988
:1059D00079441831064C7C44163404E00A68081DEA
:1059E000114488470146A142F8D110BD2C000000A7
:1059F000480000000D0A48616C20696E746572668B
:105A000061636520696E6974207375636365737380
:105A100066756C2E0D0A000057C3FFFF104700008B
:105A2000D801002000000000DBB6FFFF34030000B7
:105A3000D0010000000000200D0A4372656174650A
:105A400020776F726B207461736B2073756363656D
:105A5000737366756C2E0A0000F00DF8002801D0F3
:105A6000FFF7B4FFAFF300800020AFF30080FFF733
:105A700005FF00F002F80120704700F001B80000B7
:105A80000746384600F002F8FBE7000080B5AFF3A8
:105A90000080024A11001820ABBEFBE7260002007E
:105AA00000000000400000000000000000000000B6
:105AB0000000000000000000000000008000000066
:105AC0004000000000000000000000000000000096
:105AD00000000000000000000D0A53746172742081
