:020000040800F2
:10000000B028002001640008416200084362000833
:1000100045620008476200084962000800000000CD
:10002000000000000000000000000000F5110008C2
:100030004B620008000000009D1100084D6200089E
:1000400055640008596400085D6400086164000894
:1000500065640008696400086D6400087164000844
:1000600075640008796400087D64000881640008F4
:1000700085640008896400088D64000891640008A4
:1000800095640008996400089D640008A164000854
:1000900061620008A5640008A9640008AD64000856
:1000A000B1640008B5640008B9640008BD640008C4
:1000B000C16400080000000000000000C5640008E2
:1000C000C9640008CD640008D16400080000000085
:1000D000D5640008D9640008DD640008E164000804
:1000E000E5640008E9640008ED6400080000000011
:1000F0000000000000000000000000000000000000
:10010000000000000000000000000000F164000892
:100110000000000000000000F5640008000000007E
:1001200000000000000000000000000000000000CF
:1001300000000000000000000000000000000000BF
:10014000F9640008FD6400080000000000000000E1
:10015000000000000000000000000000000000009F
:100160000165000805650008096500080D650008BF
:100170001165000800000000000000000000000001
:1001800000000000156500082DE9F84384B0060062
:100190000F0091469846484680B2800000F056FD18
:1001A0000500002D0BD0542000F050FD0400002C61
:1001B00001D0256304E0280000F0D2FD00E0002417
:1001C000002C13D00D990C980022039202940191F7
:1001D000009043461FFA89F94A463900300000F082
:1001E0000AF8200000F05CF8012001E05FF0FF3029
:1001F00005B0BDE8F0832DE9F84305001E000A9F15
:10020000386B00EB8200B0F104085FEAD8085FEABF
:10021000C80818F00700002807D0502080F3118884
:10022000BFF34F8FBFF36F8FFEE7002200E0521C39
:10023000102A07D2885C07EB020383F83400885C3D
:100240000028F4D1DDF82090002087F84300B9F1B0
:10025000070F01D35FF00609099CC7F82C90C7F877
:1002600044900020B864381D00F02FFE17F11800EC
:1002700000F02BFE3F61D9F10709C7F818907F62A3
:100280000020F864002087F8500032002900404622
:1002900000F058FE3860002C00D02760BDE8F183E4
:1002A00038B5040000F0DEFEDFF80C170868401CCB
:1002B0000860DFF808572868002806D12C60086815
:1002C00001280DD100F082FB0AE0DFF8F406006897
:1002D000002805D1E06A2968C96A884200D32C60E9
:1002E000DFF8E0060168491C0160DFF8DC160A68E7
:1002F0000123E06A83401A430A60211DDFF8542776
:10030000E36A1420434302EB030000F0E1FD00F038
:10031000C3FEDFF8AC06006800280DD02868C06A6C
:10032000E16A884208D25FF08050DFF894170860D5
:10033000BFF34F8FBFF36F8F31BD38B5040000F0AE
:1003400091FE002C03D1DFF874060468FFE7201D3E
:1003500000F0E5FD00280FD1DFF8F816E26A14205E
:1003600042438858002807D1DFF85C160A68012349
:10037000E06A83409A430A60A06A002803D014F11F
:10038000180000F0CCFDDFF83C060168491C016054
:10039000DFF82856286884420AD1211DDFF8F406C8
:1003A00000F096FDDFF8F0060168491C016009E0E5
:1003B000DFF804060168491E0160200000F04CFBD4
:1003C00000F053FB00F068FEDFF8F4050068002839
:1003D00018D02868844215D1DFF8E00600680028AC
:1003E00007D0502080F31188BFF34F8FBFF36F8F7A
:1003F000FEE75FF08050DFF8C8160860BFF34F8F4C
:10040000BFF36F8F31BD70B5040000F02BFE002CE0
:1004100003D1DFF8A8050468FFE7201D00F07FFD89
:1004200000280FD1DFF82C16E26A142042438858C6
:10043000002807D1DFF890150A680123E06A83409D
:100440009A430A60A06A002803D014F1180000F053
:1004500066FDDFF82057211D280000F039FD94F8D3
:100460005000012802D1002084F8500000F014FE52
:10047000DFF84C653068002805D000F0F3FD00F08F
:10048000F4FA00F009FEDFF834150868844224D13C
:100490003068002816D0DFF824060068002807D04E
:1004A000502080F31188BFF34F8FBFF36F8FFEE7AB
:1004B0005FF08050DFF808160860BFF34F8FBFF37E
:1004C0006F8F0AE02868DFF8F0241268904202D1AA
:1004D0000020086001E000F083F970BD01000020F9
:1004E0000A00002907D1502080F31188BFF34F8FF5
:1004F000BFF36F8FFEE75169DFF87836994208D174
:10050000916ADFF87836994203D0916A002900D1C8
:100510000120704738B50400002807D1502080F32F
:100520001188BFF34F8FBFF36F8FFEE7002C30D0E1
:10053000DFF88854286884422BD000F093FD200017
:10054000FFF7CCFF002822D0201D00F0E8FCDFF8E8
:1005500078140A680123E06A83401A430A60211D67
:10056000DFF8F024E36A1420434302EB030000F0B9
:10057000AFFCE06A2968C96A884208D35FF08050FE
:10058000DFF8F4150860BFF34F8FBFF36F8F00F0F3
:1005900083FD31BDE0B5DFF8E80501900020009053
:1005A00000238022DFF8DC150FF2E930FFF7ECFDC5
:1005B000012816D1502080F31188BFF34F8FBFF36D
:1005C0006F8F5FF0FF30DFF8C01508600120DFF8A3
:1005D000F01308600020DFF8B415086000F0DBFCC1
:1005E00007BD10F1010FFBD1502080F31188BFF33C
:1005F0004F8FBFF36F8FFEE7DFF8C0040168491C1F
:100600000160704770B500240025DFF8B0643068E1
:10061000002807D1502080F31188BFF34F8FBFF31C
:100620006F8FFEE700F01EFD3068401E30603068BE
:10063000002855D1DFF880030068002826D14FE05C
:10064000C868C46814F1180000F069FC201D00F0AF
:1006500066FCDFF874130A680123E06A83401A43DA
:100660000A60211DDFF8EC23E36A1420434302EB08
:10067000030000F02DFCE06ADFF840130968C96A46
:10068000884203D30120DFF810150860DFF8EC146E
:1006900008680028D4D1002C01D000F0E6F9DFF87A
:1006A000F0643468002C0CD000F01EF8002803D051
:1006B0000120DFF8E4140860641E002CF4D100204F
:1006C0003060DFF8D4040068002809D001255FF00D
:1006D0008050DFF8A4140860BFF34F8FBFF36F8F13
:1006E00000F0DAFC280070BDF8B50025DFF8CC0377
:1006F0000068002867D1DFF894040468641C046073
:10070000002C1AD1DFF88C1408680068002807D084
:10071000502080F31188BFF34F8FBFF36F8FFEE738
:100720000868DFF8782413680B601060DFF8700445
:100730000168491C016000F098F9DFF84C643068EA
:10074000844230D322E0381D00F0E9FBB86A00286B
:1007500003D017F1180000F0E2FBDFF86C120A6812
:100760000123F86A83401A430A60391DDFF8E42246
:10077000FB6A1420434302EB030000F0A9FBF86A74
:100780008E490968C96A884200D30125DFF804143C
:1007900008680068002812D00868C068C7687868D0
:1007A0008442D0D2306085480068DFF8A812C26A5F
:1007B00014204243885802280AD3012508E05FF03C
:1007C000FF303060EFE7DFF8C8030168491C0160C3
:1007D000DFF8C4030068002800D001252800F2BD1E
:1007E000DFF8D8020068002804D00120DFF8A81341
:1007F00008602AE00020DFF8A01308607248006853
:10080000B0FA80F1D1F11F011422924B02FB01F0EA
:100810001858002807D1502080F31188BFF34F8F5C
:10082000BFF36F8FFEE7514303EB01004168496856
:100830004160416810F10802914202D14168496863
:1008400041604068C0685D490860704710B50C00A1
:10085000002807D1502080F31188BFF34F8FBFF3DA
:100860006F8FFEE7DFF8B4130968183100F03CFB26
:100870000121200000F096F910BD10B5C068C468D1
:10088000002C07D1502080F31188BFF34F8FBFF3A6
:100890006F8FFEE714F1180000F041FB87480068F5
:1008A000002813D1201D00F03AFB47490A680123B4
:1008B000E06A83401A430A60211D664AE36A1420F5
:1008C000434302EB030000F003FB05E014F11801C1
:1008D000DFF8A80200F0FCFA38480068C06AE16A54
:1008E000884205D201200121DFF83423116000E0A5
:1008F000002010BDDFF8A81209680160DFF81413AA
:1009000009684160704738B504000D00002C07D11C
:10091000502080F31188BFF34F8FBFF36F8FFEE736
:10092000002D07D1502080F31188BFF34F8FBFF304
:100930006F8FFEE700F096FBDFF8500200686168F9
:10094000411A2A6812F1010F01D1002418E0DFF8E2
:100950005022126823689A4204D06268904201D300
:1009600001240DE02868814207D22868411A2960D5
:100970002000FFF7BFFF002402E0002028600124D0
:1009800000F08AFB200032BD0120DFF894120860DD
:100990007047000080B500F041F82E48006802283A
:1009A000F9D35FF08050DFF8D0110860BFF34F8FAC
:1009B000BFF36F8FEFE700007C2400206C24002041
:1009C00088240020982400208424002038B50024A6
:1009D00007E02048142101FB04F1084400F066FA06
:1009E000641C072CF5D3DFF83C42200000F05EFACF
:1009F000DFF83452280000F059FADFF8800100F0E7
:100A000055FA244800F052FA5A4800F04FFADFF83D
:100A100084010460DFF81402056031BD38B514E0CC
:100A200000F020FB1B48C068C468201D00F077FA66
:100A3000DFF8E4010168491E01602868401E286053
:100A400000F02AFB200000F007F8134D286800286A
:100A5000E6D131BDA022002010B50400206B00F0CB
:100A60007FF9200000F07CF910BDDFF8281108683C
:100A70000068002805D15FF0FF30DFF80C11086036
:100A800006E00868C068C0684068DFF8FC100860CD
:100A9000704700001424002078240020DFF8900123
:100AA0000068002801D1012007E0DFF88801006814
:100AB000002801D1022000E000207047A42400207B
:100AC00004ED00E010B50400002100284FD0DFF84D
:100AD0004C010068844207D0502080F31188BFF396
:100AE0004F8FBFF36F8FFEE7A06C002807D1502017
:100AF00080F31188BFF34F8FBFF36F8FFEE7A06CB9
:100B0000401EA064E06A626C904230D0A06C002865
:100B10002DD1201D00F003FA00280FD1DFF81811A5
:100B2000E26A142042438858002807D1DFF80C11EC
:100B30000A680123E06A83409A430A60606CE062BD
:100B4000E06AD0F10700A061DFF8F0100A68012325
:100B5000E06A83401A430A60211DDFF8DC20E36A63
:100B60001420434302EB030000F0B2F90121080016
:100B700010BD00002824002004ED00E00024002027
:100B8000A0240020446400089C240020802400202D
:100B90008C24002070240020902400207424002045
:100BA00094240020F8B505000C001A4806681B4F75
:100BB0003868001D00F0B3F9002807D138681F49D4
:100BC0000A680123C06A83409A430A6015F1010F45
:100BD00007D1002C05D03868011D194800F078F9BC
:100BE00016E0AD1938684560B54206D23868011D77
:100BF0000E48006800F078F90AE03868011D1148D5
:100C0000006800F071F9104801688D4200D205605B
:100C1000F1BD0000802400207C2400206C240020F2
:100C200090240020D8230020EC23002074240020EE
:100C300088240020A4240020A02200208424002056
:100C400028240020702400209C2400202DE9F84353
:100C500004000025FFF7D0FCDFF83492D9F800003B
:100C6000002801D100F0B5F88A4F3868044266D1F7
:100C7000002C15D088480068041914F0070F0FD015
:100C800014F1080014F00704041B14F0070F07D038
:100C9000502080F31188BFF34F8FBFF36F8FFEE7B3
:100CA000002C4CD0DFF8F481D8F80000A04246D3E5
:100CB0007B480100066801E0310036687068A04298
:100CC00002D230680028F7D1D9F80000864236D029
:100CD00071480A68036802EB030532680A6000681D
:100CE00040007168091B884214D206EB040111F020
:100CF0000700002807D0502080F31188BFF34F8FE2
:100D0000BFF36F8FFEE77068001B486074600800D7
:100D100000F08EF8D8F800107068091AC8F80010B2
:100D20006048D8F800100268914202D2D8F800104A
:100D30000160716838680143716000203060FFF71E
:100D400061FC15F00700002807D0502080F31188BF
:100D5000BFF34F8FBFF36F8FFEE72800BDE8F2832C
:100D600010B50100002833D04B480068404201EB29
:100D70000004484960680A68104207D1502080F397
:100D80001188BFF34F8FBFF36F8FFEE720680028F5
:100D900007D0502080F31188BFF34F8FBFF36F8FC0
:100DA000FEE760680A68104212D0206800280FD160
:100DB0006268086882436260FFF71EFC37490A6870
:100DC000606882180A60200000F032F8FFF71AFC11
:100DD00010BD10B44FF480523348010011F0070FDA
:100DE00004D0C91DC908C900521A82182C480160D4
:100DF00000234360521828480068121AD208D20013
:100E000023480260002304686360002304682360B1
:100E1000521A4A60006808604868224A10604868B0
:100E20001E4908605FF000401A49086010BC704716
:100E300010B41B4A00E0126811688142FBD3110014
:100E400053681944814204D1516840684118516087
:100E500010000100436819441368994210D10C49ED
:100E600013680C68A34208D0436811684968CB181E
:100E7000436011680968016004E00968016001E0ED
:100E800011680160824200D0106010BC7047000001
:100E900044240020502400204C64000848240020F2
:100EA0003C2400204C2400208001002010F1080187
:100EB00041605FF0FF31816010F10801C16010F105
:100EC0000801016100210160704700210161704744
:100ED00042684A6093688B609368596091600861CA
:100EE0000168491C0160704710B40B6813F1010FD1
:100EF00001D1026907E010F1080200E0526854686D
:100F00002468A342FAD253684B604B6899608A60A8
:100F1000516008610168491C016010BC704701699B
:100F2000826843689A60426883685A604A6882426D
:100F300001D182684A60002202610868401E086090
:100F400008687047001F5FF080730360001F490846
:100F500049000160001F0FF21501016014380260A2
:100F6000001F7FF00201016020387047724800685E
:100F700010F1010F07D0502080F31188BFF34F8F7D
:100F8000BFF36F8FFEE7502080F31188BFF34F8FC0
:100F9000BFF36F8FFEE7E0B568480168684A914289
:100FA00007D1502080F31188BFF34F8FBFF36F8FAD
:100FB000FEE700686349884207D1502080F311881A
:100FC000BFF34F8FBFF36F8FFEE75F48017801914A
:100FD000FF21017001788DF800109DF8001011F0CC
:100FE00050015A4A11705A4907220A6007E00A68FC
:100FF000521E0A609DF8002052008DF800209DF8D6
:1010000000201206F3D40A68D2F10702042A07D09E
:10101000502080F31188BFF34F8FBFF36F8FFEE72F
:101020000A6812020A600A6812F4E0620A60019912
:1010300001704848016851F470010160016851F085
:101040007041016000F090F800203B49086000F01A
:10105000EFF84148016851F04041016000F0D8F8D4
:1010600000200EBD502080F31188BFF34F8FBFF3D7
:101070006F8F31490A68521C0A60096801290AD138
:1010800036490968090606D080F31188BFF34F8FEF
:10109000BFF36F8FFEE7704727490868002807D124
:1010A000502080F31188BFF34F8FBFF36F8FFEE79F
:1010B0000868401E08600868002802D1002080F3FC
:1010C0001188704780B5502080F31188BFF34F8F8F
:1010D000BFF36F8FFFF708FB002803D05FF080504D
:1010E0001E490860002080F3118801BDEFF30580E0
:1010F00010280FD31A490968085C14490978C0B24E
:10110000884207D2502080F31188BFF34F8FBFF37E
:101110006F8FFEE70E4800681249096811F4E0611C
:10112000884207D2502080F31188BFF34F8FBFF35E
:101130006F8FFEE7704700000000002000ED00E028
:1011400071C20F4170C20F4100E400E0A8240020EA
:101150006424002020ED00E034EF00E004ED00E026
:10116000506400080CED00E00848002101600021F7
:10117000074A1160074909684FF47A72B1FBF2F12E
:10118000491E054A116007210160704710E000E028
:1011900018E000E00800002014E000E0EFF3098010
:1011A000BFF36F8F264B1A681EF0100F08BF20ED9B
:1011B000108A20E9F04F106009B44FF0500080F31E
:1011C0001188BFF34F8FBFF36F8FFFF709FB4FF00D
:1011D000000080F3118809BC19680868B0E8F04F76
:1011E0001EF0100F08BFB0EC108A80F30988BFF31F
:1011F0006F8F7047124B19680868B0E8F04F80F3A2
:101200000988BFF36F8F4FF0000080F3118870479B
:101210000C480068006880F308884FF0000080F3F5
:10122000148862B661B6BFF34F8FBFF36F8F00DFD4
:10123000DFF81400016841F470010160704700009C
:101240006C24002008ED00E088ED00E04FF43F4101
:10125000B0F840201143A0F84010002070474FF430
:101260003F41B0F8402032EA0101A0F840100020D0
:1012700070470EB400B50121A0F840100021A0F87D
:1012800040100021A0F844100021A0F85010FFF7F2
:10129000DDFF00205DF810FBF0B400220B7830F881
:1012A000235048F68F131D40CB78002B05D0022B1E
:1012B00006D009D3032B04D009E055F4007507E0EC
:1012C00006E055F4C06503E055F4806500E00122B6
:1012D00048F2800425430B7820F8235048F68F7598
:1012E0000B7830F823602E400B781E4326430B7892
:1012F00020F823600B7B002B40F098804B78002B6C
:1013000039D00300B0F850609B190E7813EBC60378
:1013100013F58063CE88B6B2760876001E800B780F
:1013200030F823309BB25B060AD50B7830F82330B7
:101330001D4045F4004555F0C0050B7820F82350BA
:10134000CB78012B0CD00B7830F8235048F6BF73C4
:101350001D4095F020052C43097820F8214026E116
:101360000B7830F8235048F6BF731D402C430978A2
:1013700020F821401BE10300B0F850609B190E7863
:1013800013EBC60303F20443CE88B6B276087600A8
:101390001E800300B0F850609E190B7816EBC30650
:1013A00006F206460B69002B09D1378848F2FF3355
:1013B0001F403780338853F40043338016E00B69B5
:1013C0003F2B08D20B695B080F7CFF0700D55B1C25
:1013D0009B0233800AE00B695B090F7C17F01F0F3B
:1013E00000D15B1E9B0253F4004333800B7830F82E
:1013F00023309BB25B040AD50B7830F823301D40B4
:1014000045F4404555F080050B7820F823500B78C3
:1014100030F823504BF68F731D4095F4805595F4AA
:1014200000552C43097820F82140C0E00B7830F8B3
:1014300023302B4043F4014353F080030E7820F80F
:1014400026300300B0F850609B190E7813EBC603EA
:1014500013F580630E89B6B2760876001E8003000D
:10146000B0F850609B190E7813EBC60303F20443E7
:101470004E89B6B2760876001E804B78002B45D197
:101480000B7830F823309BB25B040AD50B7830F828
:1014900023302B4043F4404353F080030E7820F870
:1014A00026300B7830F823309BB25B060AD50B78D8
:1014B00030F823302B4043F4004353F0C0030E7840
:1014C00020F826300B7830F823301D4045F40045D5
:1014D00055F0C0050B7820F823500B7830F82350D6
:1014E0004BF68F731D4095F4805595F400552543B8
:1014F0000B7820F823500B7830F8235048F6BF7350
:101500001D402C43097820F8214050E00B7830F83A
:1015100023309BB25B040AD50B7830F823302B4084
:1015200043F4404353F080030E7820F826300B78C4
:1015300030F823309BB25B060AD50B7830F82330A5
:101540002B4043F4004353F0C0030E7820F82630BC
:101550000B7830F823301D4045F4404555F08005A8
:101560000B7820F82350CB78012B0CD00B7830F877
:10157000235048F6BF731D4095F0200525430B7896
:1015800020F8235009E00B7830F8235048F6BF7359
:101590001D4025430B7820F823500B7830F823505A
:1015A0004BF68F731D402C43097820F82140100022
:1015B000C0B2F0BC704710B40A7B002A44D14A780C
:1015C000002A20D00A7830F8222092B252060CD598
:1015D0000A7830F8223048F68F72134043F4004303
:1015E00053F0C0030A7820F822300A7830F822300D
:1015F00048F6BF72134043F4004353F08003097868
:1016000020F82130B6E00A7830F8222092B2520455
:101610000CD50A7830F8223048F68F72134043F424
:10162000404353F080030A7820F822300A7830F8DB
:1016300022304BF68F72134043F4004353F0800383
:10164000097820F8213095E04A78002A49D10A78B3
:1016500030F8222092B252040CD50A7830F82230A9
:1016600048F68F72134043F4404353F080030A78E6
:1016700020F822300A7830F8222092B252060CD597
:101680000A7830F8223048F68F72134043F4004352
:1016900053F0C0030A7820F822300A7830F822305C
:1016A00048F68F72134043F4004353F0C0030A78A6
:1016B00020F822300A7830F822404BF68F7214401E
:1016C00048F280031C430A7820F822400A7830F858
:1016D000224048F6BF7214402343097820F8213095
:1016E00048E00A7830F8222092B252040CD50A78E9
:1016F00030F8223048F68F72134043F4404353F0E1
:1017000080030A7820F822300A7830F8222092B23A
:1017100052060CD50A7830F8223048F68F72134002
:1017200043F4004353F0C0030A7820F822300A78CB
:1017300030F8223048F68F72134043F4404353F0A0
:1017400080030A7820F822300A7830F8224048F6E0
:10175000BF72144048F280031C430A7820F82240EC
:101760000A7830F822404BF68F72144023430978F0
:1017700020F82130002010BC704770B505000E0025
:101780007078012840F0D7803069B169884204D26E
:101790003469B069001BB06102E0B4690020B06137
:1017A000307B002811D123009BB2F2887169280098
:1017B00000F006FA2800B5F850104018317810EB08
:1017C000C10000F202400480A3E0307835F8200028
:1017D00040063BD529007078002829D12800B5F8AB
:1017E00050104118307811EBC00101F20641002C75
:1017F00009D10A8848F2FF3002400A80088850F474
:101800000040088013E03F2C07D220004008E20788
:1018100000D5401C8002088009E02000400914F037
:101820001F0F00D1401E800250F4004008800BE0E2
:101830007078012808D1B5F850000818317810EBFD
:10184000C10000F20640048072893AE070780028F6
:1018500029D12800B5F850104118307811EBC0019B
:1018600001F20241002C09D10A8848F2FF300240FF
:101870000A80088850F40040088013E03F2C07D20B
:1018800020004008E20700D5401C8002088009E0E3
:101890002000400914F01F0F00D1401E800250F4B8
:1018A000004008800CE07078012809D12800B5F8C4
:1018B00050104018317810EBC10000F20240048053
:1018C000328923009BB292B27169280000F078F946
:1018D000707800280DD1307835F8201048F68F70D8
:1018E000014041F4004151F0C001307825F820104A
:1018F0000FE0707801280CD1307835F8201048F6C8
:101900008F70014041F4404151F08001307825F85A
:101910002010307835F8201048F6BF70014091F063
:10192000100191F0200141F4004151F08001307824
:1019300025F82010BDE03069B169884204D23069D1
:10194000B169091AB16102E0B0690021B161317B6E
:10195000002929D12900B5F850208918327811EBD7
:10196000C20101F20641002809D10A8848F2FF307D
:1019700002400A80088850F40040088013E03F28A5
:1019800007D202005208C00700D5521C90020880FE
:1019900009E00200520910F01F0F00D1521E900200
:1019A00050F40040088073E07178002929D12900A3
:1019B000B5F850208A18317812EBC10202F20242C7
:1019C000002809D1138848F2FF310B401380118899
:1019D00051F40041118013E03F2807D2010049086B
:1019E000C30700D5491C8902118009E0010049099B
:1019F00010F01F0F00D1491E890251F400411180DF
:101A00000CE07178012909D12900B5F85020891816
:101A1000327811EBC20101F2024108802A0071788C
:101A2000002929D12900B5F850208918327811EB06
:101A3000C20101F20641002809D10A8848F2FF30AC
:101A400002400A80088850F40040088013E03F28D4
:101A500007D202005208C00700D5521C900208802D
:101A600009E00200520910F01F0F00D1521E90022F
:101A700050F4004008800BE07178012908D1B5F8D6
:101A800050105118327811EBC20101F20641088062
:101A9000307835F820104BF68F70014091F480516A
:101AA00091F4005141F4004151F08001307825F863
:101AB0002010002070BD4A78002A0FD00A7830F834
:101AC000223048F6BF72134093F0100343F40043F2
:101AD00053F08003097820F821300EE00A7830F8BE
:101AE00022304BF68F72134093F4805343F400433B
:101AF00053F08003097820F82130002070470A7BDA
:101B0000002A4CD14A78002A25D00A7830F82220C1
:101B100092B252060CD50A7830F8223048F68F720D
:101B2000134043F4004353F0C0030A7820F82230F6
:101B3000CA78012A33D00A7830F8223048F6BF72CA
:101B4000134093F0200343F4004353F080030978DB
:101B500020F8213023E00A7830F8222092B2520493
:101B60000CD50A7830F8223048F68F72134043F4CF
:101B7000404353F080030A7820F822300A7830F886
:101B800022304BF68F72134093F4805393F400533A
:101B900043F4004353F08003097820F821300020FB
:101BA0007047C9B2002902D18021A0F84C10002052
:101BB000704700207047B0F844007047002070471D
:101BC00010B49BB25B1C5B0810FA82F212F58062C3
:101BD00009E00878491C0C782402A4B22043108044
:101BE000921C491C5B1E002BF3D110BC704710B433
:101BF0001C00A4B2640810FA82F212F5806207E0B9
:101C00001088921C0870491C000A0870491C641E48
:101C1000002CF5D1D80701D51088087010BC70478A
:101C20002DE9F8430400002C01D1012030E3207895
:101C3000C00740F1BE80DFF88408016811F00C0194
:101C400004290AD0016811F00C01082928D1006884
:101C500010F48030B0F5803F22D14FF48040B0FACC
:101C600080F151F02001C9B24909012903D1DFF8FF
:101C70004818096806E0B0FA80F1B0FA80F1DFF8A0
:101C800054180968B0FA80F010F01F00C140C8076E
:101C900040F18F806068002840F08B800120F7E2DF
:101CA0006068B0F5803F06D1DFF80C08016851F498
:101CB0008031016026E0606800280AD1DFF8F8076B
:101CC000016831F480310160016831F480210160E4
:101CD00018E06068B0F5A02F0AD1DFF8DC070168D2
:101CE00051F480210160016851F48031016009E004
:101CF000DFF8C407016831F480310160016831F414
:101D000080210160DFF8C4170A6812091201A06877
:101D100002430A606068002825D000F0EFFB050050
:101D20004FF48040B0FA80F151F02001C9B2490966
:101D3000012903D1DFF88017096806E0B0FA80F1C5
:101D4000B0FA80F1DFF88C170968B0FA80F010F073
:101D50001F00C140C8072CD400F0D0FB401B6528F1
:101D6000DED3032094E200F0C9FB05004FF480406D
:101D7000B0FA80F151F02001C9B24909012903D11B
:101D8000DFF83417096806E0B0FA80F1B0FA80F1A4
:101D9000DFF840170968B0FA80F010F01F00C1406A
:101DA000C80706D500F0AAFB401B6528DED3032038
:101DB0006EE2207880073CD5DFF80007016811F05B
:101DC0000C0F07D0016811F00C01082960D10068E0
:101DD000C0035DD45FF08040B0FA80F151F0200183
:101DE000C9B24909012903D1DFF8CC16096806E018
:101DF000B0FA80F1B0FA80F1DFF8D8160968B0FACD
:101E000080F010F01F00C140C80704D520690128E8
:101E100001D001203CE2DFF8A00601685FF0F85233
:101E2000B2FA82F231F0F801636913FA02F2114357
:101E300001602078000740F1C480A069002800F00C
:101E40009A8001205FF00041B1FA81F1DFF880262D
:101E500012EB8102106000F051FB05005FF0804042
:101E6000B0FA80F1B0FA80F1B0FA80F1DFF86416D0
:101E70000968B0FA80F010F01F00C140C80700F1F7
:101E8000A08000F03BFB401B0328E7D30320FFE1C9
:101E9000206900283ED001205FF00041B1FA81F1B5
:101EA000DFF8342612EB8102106000F027FB0500FA
:101EB0005FF08040B0FA80F151F02001C9B24909C9
:101EC000012903D1DFF8F015096806E0B0FA80F1C6
:101ED000B0FA80F1DFF8FC150968B0FA80F010F074
:101EE0001F00C140C80706D400F008FB401B0328B0
:101EF000DED30320CCE1DFF8C00501685FF0F852C3
:101F0000B2FA82F231F0F801636913FA02F2114376
:101F100001608EE700205FF00041B1FA81F1DFF847
:101F2000B82512EB8102106000F0E8FA05005FF0BE
:101F30008040B0FA80F151F02001C9B2490901296D
:101F400003D1DFF87415096806E0B0FA80F1B0FA41
:101F500080F1DFF880150968B0FA80F010F01F00FA
:101F6000C140C8077FF565AF00F0C8FA401B0328E1
:101F7000DDD303208CE100205FF00041B1FA81F154
:101F8000DFF84C2512EB8102106000F0B7FA050073
:101F90005FF08040B0FA80F1B0FA80F1B0FA80F1E1
:101FA000DFF830150968B0FA80F010F01F00C1406A
:101FB000C80706D500F0A2FA401B0328E8D3032087
:101FC00066E12078400740F1B1800026DFF80C552B
:101FD0002868C00009D4286850F08050286028681C
:101FE00010F08050009000980126DFF8F4743868F3
:101FF000C00511D4386850F48070386000F07EFA63
:1020000080463868C00507D400F078FAB0EB0800C5
:102010006528F6D303203BE1E068012806D1DFF80C
:10202000C404016851F00101016025E0E068002866
:102030000AD1DFF8B004016849084900016001686D
:1020400031F00401016017E0E06805280AD1DFF8EB
:102050009404016851F004010160016851F001012C
:10206000016009E0DFF87C0401684908490001606B
:10207000016831F004010160E068002827D000F019
:102080003DFA07005FF08040B0FA80F1B0FA80F1CD
:1020900051F04001C9B24909022903D1DFF84414C3
:1020A000096804E0B0FA80F1DFF828140968B0FA92
:1020B00080F010F01F00C140C80730D400F01EFAB5
:1020C000C01B41F289318842DCD30320E0E000F0FC
:1020D00015FA07005FF08040B0FA80F1B0FA80F1A5
:1020E00051F04001C9B24909022903D1DFF8F413C4
:1020F000096804E0B0FA80F1DFF8D8130968B0FA93
:1021000080F010F01F00C140C80708D500F0F6F9B4
:10211000C01B41F289318842DCD30320B8E0F6B21B
:10212000012E03D1286830F080502860E069002833
:1021300000F0AD80DFF88463306810F00C000828F0
:1021400000F09380E069022861D18027DFF888835E
:102150000020B7FA87F118EB8101086000F0CEF992
:1021600081464025B5FA85F050F02000C0B2400904
:10217000012803D1DFF84003006806E0B5FA85F0D6
:10218000B5FA85F0DFF84C030068B5FA85F111F077
:102190001F01C840C00707D500F0B0F9B0EB090037
:1021A0000328DED3032073E0316831F47411606AD0
:1021B0000143206A014331600120B7FA87F118EB2F
:1021C0008108C8F8000000F099F90400B5FA85F01C
:1021D00050F02000C0B24009012803D1DFF8D80236
:1021E000006806E0B5FA85F0B5FA85F0DFF8E4029C
:1021F0000068B5FA85F111F01F01C840C00746D448
:1022000000F07CF9001B0328E0D3032040E000200D
:102210008021B1FA81F1DFF8C02212EB8102106057
:1022200000F06CF904004020B0FA80F151F0200178
:10223000C9B24909012903D1DFF87C12096806E017
:10224000B0FA80F1B0FA80F1DFF888120968B0FACC
:1022500080F010F01F00C140C80718D500F04EF9FB
:10226000001B0328DFD3032012E0E069012801D11D
:1022700001200DE0306810F48031226A914204D1CF
:1022800010F47010616A884201D0012000E0002043
:10229000BDE8F2832DE9F04104000D000020002C80
:1022A00001D10120D2E0DFF84062306810F0070071
:1022B000A8420BD23068C008C000284330603068A4
:1022C00010F00700A84201D00120BFE0207880076D
:1022D00007D5DFF8E8110A6832F0F002A06802437F
:1022E0000A602078C00776D5606801281DD14FF4B8
:1022F0008040B0FA80F151F02001C9B249090129AA
:1023000003D1DFF8B411096806E0B0FA80F1B0FA41
:1023100080F1DFF8C0110968B0FA80F010F01F00FA
:10232000C140C8073CD4012090E0606802281BD15E
:102330004020B0FA80F151F02001C9B249090129C9
:1023400002D15D49096806E0B0FA80F1B0FA80F187
:10235000DFF880110968B0FA80F010F01F00C1406A
:10236000C8071DD4012071E05FF08040B0FA80F111
:1023700051F02001C9B24909012902D14E49096829
:1023800005E0B0FA80F1B0FA80F152490968B0FA7C
:1023900080F010F01F00C140C80701D4012055E0B3
:1023A000464F39688908890060680143396000F048
:1023B000A5F88046386810F00C006168B0EB810F1A
:1023C00009D000F09BF8B0EB080041F28931884257
:1023D000F0D303203AE0306810F0070085420BD2BA
:1023E0003068C008C00028433060306810F0070033
:1023F000A84201D0012029E02078400706D52F49C6
:102400000A6832F4E062E06802430A60207800075C
:1024100007D52A48016831F46051226951EAC201A6
:10242000016000F015F825490968304A11F0F00103
:102430005FF07063B3FA83F3D940515CC84021491F
:1024400008602148006800F05FF80020BDE8F081D6
:1024500010B4002000200020002000201748016850
:1024600011F00C00042802D0082802D021E0144802
:1024700020E01F4811F470124FF47053B3FA83F345
:10248000DA40805C114A12681A4B12F00F025FF0BA
:102490007044B4FA84F4E2409A5CC90306D5084952
:1024A000B1FBF2F201001000484301E01249484339
:1024B00000E0034810BC70470010024004100240C6
:1024C00000127A0008000020040000202C100240B6
:1024D0008004424224100240000042421C1002408C
:1024E000007000402010024000200240E06300081D
:1024F000C0630008D063000800093D00014800687F
:10250000704700BF6824002010B504004FF47A70B3
:102510000D490978B0FBF1F00C490968B1FBF0F006
:1025200000F099F8002801D001200CE0102C09D20D
:10253000002221005FF0FF3000F077F804480460CB
:10254000002000E0012010BD7C01002008000020D8
:102550000400002010F00700414B1A684FF6FF01FD
:102560000A40404951EA00210A431A6070473C483A
:102570000068C0F302207047010049B2002908D466
:10258000012210F01F018A40374940B2400941F84A
:1025900020207047020052B2002A04D40901334AB5
:1025A00040B2115407E00901314A40B210F00F0067
:1025B000104400F8041C704710B410F00700D0F16C
:1025C0000703052B01D3042301E0D0F10703041D09
:1025D000072C01D2002000E0C01E012414FA03F3EE
:1025E0005B1E1940814014FA00F0401E1040084361
:1025F00010BC704780B5411EB1F1807F01D301202E
:102600000EE0401E1B4908600F215FF0FF30FFF70E
:10261000C1FF002018490860072018490860002001
:1026200002BD80B5FFF796FF01BD70B504000D0037
:1026300016000020FFF79BFF32002900FFF7BCFFC8
:102640000100200040B2FFF7A5FF70BD80B540B289
:10265000FFF792FF01BD80B5FFF7CCFF02BD000080
:102660000CED00E00000FA0500E100E000E400E00D
:1026700018ED00E014E000E018E000E010E000E0F9
:1026800018B585B00400002C01D1012086E094F833
:102690002902002805D1002084F82802200000F03B
:1026A00045FC032084F829022068FEF7D8FD0020AD
:1026B0002DE001210200D2B25201224482F82910F9
:1026C0000100C9B24901214481F828000100C9B2C2
:1026D0000200D2B252012244D18600210200D2B2BD
:1026E0005201224482F82B1000210200D2B2520182
:1026F0002244916300210200D2B252012244D163EC
:1027000000210200D2B2520122441164401C010097
:10271000C9B262689142CCD3002029E000210200B6
:10272000D2B25201224482F829110100C9B24901F2
:10273000214481F8280100210200D2B25201224432
:1027400082F82B1100210200D2B252012244C2F8B9
:10275000381100210200D2B252012244C2F83C11C9
:1027600000210200D2B252012244C2F84011401CA2
:102770000100C9B262689142D0D3211D83B068467E
:10278000202200F077FD0EBC2068FEF772FD0020CD
:1027900084F82400012084F82902002006B010BD2E
:1027A00010B5040094F82802012801D1022010E09D
:1027B000012084F828020121200000F0F8FC2068A4
:1027C000FFF7F7F92068FEF741FD002084F82802A2
:1027D000002010BD10B504002068FFF7ECF90004DC
:1027E00002D5200000F0DEF92068FFF7E4F940058B
:1027F0000FD52068B0F844104FF6FF300140206834
:10280000A0F84410200000F0D0FB0021200000F0D0
:1028100085F82068FFF7CFF9400408D52068B0F8A4
:1028200044104BF6FF7001402068A0F84410206867
:10283000FFF7C1F9800408D52068B0F844104DF6C0
:10284000FF7001402068A0F844102068FFF7B3F93A
:10285000C0041DD52068B0F840104FF6FB70014051
:102860002068A0F840102068B0F840104FF6F770CC
:1028700001402068A0F84010200000F0B8FB20685C
:10288000B0F844104EF6FF7001402068A0F84410E4
:102890002068FFF790F9000520D52068B0F84000C7
:1028A00050F008002168A1F840002068B0F84410FA
:1028B0004FF2FF7001402068A0F844102068B0F883
:1028C000400050F004002168A1F840002068FFF7A4
:1028D00072F9C00402D4200000F07AFB2068FFF7F0
:1028E0006AF980050BD52068B0F844104FF6FF5008
:1028F00001402068A0F84410200000F050FB206840
:10290000FFF759F9C00508D52068B0F844104FF614
:10291000FF6001402068A0F8441010BD10B504000D
:1029200094F82802012801D102200CE0012084F84B
:10293000280284F82410C9B22068FFF732F9002079
:1029400084F82802002010BD70B50500002608009C
:10295000C0B200060AD50800C0B210F0070040015E
:10296000284410F128040120607009E00800C0B27A
:1029700010F007004001284410F5947400206070A6
:1029800011F00701217092B22261E3706078002893
:1029900001D02078E081DBB2022B01D10020207130
:1029A00095F82802012801D102200BE0012085F8CA
:1029B000280221002868FEF76FFC002085F8280215
:1029C0003000C0B270BD10B504000800C0B20006EF
:1029D00009D50800C0B210F007004001204428309B
:1029E0000122427009E00800C0B210F00700400167
:1029F000204410F594700022427011F0070101701C
:102A000094F82812012901D102200AE0012184F85A
:102A1000281201002068FEF7CEFD002084F828026D
:102A2000002010BD10B50C002100C9B211F0070143
:102A30004901014411F594714A618B610022CA6118
:102A400000224A7014F007020A7014F0070F03D135
:102A50000068FEF792FE02E00068FEF78EFE00209E
:102A600010BDC9B211F0070149010844D0F8440172
:102A7000704710B50C002100C9B211F007014901DF
:102A8000014428314A618B610022CA6101224A70E7
:102A900014F007020A7014F0070F03D10068FEF764
:102AA0006CFE02E00068FEF768FE002010BD38B53D
:102AB00004000D0060682900C9B211F007018842C6
:102AC00001D2012033E02800C0B200060AD5280058
:102AD000C0B210F007004001204410F1280101208D
:102AE000487007E02800C0B24001204410F59471FE
:102AF000002048700120887015F00700087094F8D5
:102B00002802012801D1022011E0012084F82802C6
:102B10002068FEF7D0FF15F0070F04D114F50C71F3
:102B20002068FFF74BF8002084F82802002032BD0F
:102B300010B5040060680A00D2B212F00F02904291
:102B400001D201202DE00800C0B2000609D508001E
:102B5000C0B210F00700400120442830012242702A
:102B600009E00800C0B210F007004001204410F551
:102B70009470002242700022827011F007010170EF
:102B800094F82812012901D102200AE0012184F8D9
:102B9000281201002068FEF7B2FF002084F8280206
:102BA000002010BD2DE9F041040032E020680188CA
:102BB00048F60F70014051F400412068018014F183
:102BC00028052068B0F850002978C9000918206845
:102BD000411801F20241088880B28005800DE86149
:102BE0006869E969084468610021200000F0CBF9B8
:102BF00094F8240000280CD0A869002809D194F882
:102C0000240050F080002168A1F84C00002084F8D6
:102C100024002068B0F84400000440F1848120685A
:102C2000B0F8440010F00F052900C9B2002940F0A7
:102C30009A8080B2C006B9D514F5947520680088D2
:102C4000010089B2090523D52068B0F85000297821
:102C5000C90009182068411801F20641088880B2AD
:102C60008005800DE861EB699BB2EA8814F50C7170
:102C70002068FEF7BCFF2068018840F68F70014095
:102C800051F0800120680180200000F067F9C0E762
:102C900080B20004BDD52068018840F68F700140E5
:102CA00051F08001206801802068B0F85000297838
:102CB000C90009182068411801F20641088880B24D
:102CC0008005800DE861E869002811D06869002856
:102CD0000ED0EB699BB2EA8869692068FEF787FF2E
:102CE0006869E969084468610021200000F03EF944
:102CF00020682168B1F85010411801F20641286996
:102D0000002809D10A8848F2FF3002400A8008886A
:102D100050F40040088016E028693F2808D228694E
:102D200040082A7CD20700D5401C800208800AE0B7
:102D3000286940092A7C12F01F0F00D1401E800232
:102D400050F400400880206801884BF68F700140E5
:102D500091F4805191F4005141F4004151F080010F
:102D60002068018055E720682900C9B230F8216049
:102D7000300080B2000440F19C8020682900C9B274
:102D800030F8211040F68F70014051F0800120682A
:102D90002A00D2B220F822102800C0B240012044FC
:102DA00010F59477387B00281BD12068B0F85000CC
:102DB0003978C90009182068411801F20641B1F8B4
:102DC00000805FEA88585FEA9858404680B2002841
:102DD00053D043469BB2FA8879692068FEF707FF13
:102DE0004BE02068397830F8210040041BD520687A
:102DF000B0F850003978C90009182068411801F26C
:102E00000241B1F800805FEA88585FEA985840466E
:102E100080B2002822D043469BB23A897969206863
:102E2000FEF7E5FE1AE02068B0F850003978C900D6
:102E300009182068411801F20641B1F800805FEAE4
:102E400088585FEA9858404680B2002806D043462A
:102E50009BB27A8979692068FEF7C9FE20683978C3
:102E600030F8211048F68F70014041F4004151F0D4
:102E7000C00120683A7820F82210F86910FA88F02A
:102E8000F8617869414689B208447861B8690028D8
:102E900004D01FFA88F83869804504D239782000B8
:102EA00000F064F805E0BB697A6939782000FFF723
:102EB000B9FDB6B230067FF5ACAE2800C0B2400115
:102EC000204410F1280120682A00D2B230F82220D4
:102ED00048F60F70024052F400422068EDB220F82C
:102EE00025202068B0F850000A78D2001218206817
:102EF000821802F20242108880B28005800DC861FB
:102F00004869CA69104448618869002804D1097871
:102F1000200000F038F87CE68B694A6909782000C7
:102F2000FFF7A7FD75E60020BDE8F08180B50068D9
:102F30009949884211D19948016851F40001016012
:102F4000006810F400000090009800220521142071
:102F5000FFF76BFB1420FFF779FB01BD80B510F57F
:102F60000C71D0F8680200F00AFA01BD80B50A00C1
:102F7000D2B252010244D2F83C21C9B2D0F8680260
:102F800000F02FFA01BD80B50A00D2B2520102440E
:102F9000D26BC9B2D0F8680200F076FA01BD80B5F4
:102FA000D0F8680200F038FB01BD38B504000125F7
:102FB000A068022801D000F099FC2900C9B2D4F819
:102FC000680200F013FBD4F8680200F0DFFA31BDAC
:102FD00010B50400D4F8680200F00BFBA0690028CB
:102FE00004D06F48016851F00601016010BD80B542
:102FF000D0F8680200F006FB01BD10B50400694876
:10300000C0F86842C4F8C002634901600821416009
:1030100002218160022101610021816100210162A0
:10302000FFF72EFB002801D000F060FC18230022DF
:103030000021D4F8C00200F05AFC5823002280215D
:10304000D4F8C00200F053FCC02300228121D4F840
:10305000C00200F04CFC4FF4887300220121D4F828
:10306000C00200F044FC4FF4807300228221D4F8A7
:10307000C00200F03CFC002010BD80B50021002102
:10308000D0F8C002FFF78CFBC0B200F091F8C0B2DC
:1030900002BD10B51C00002300231300DBB2220088
:1030A00092B2C9B2D0F8C002FFF74EFCC0B200F035
:1030B0007FF8C0B210BD80B500220022C9B2D0F89E
:1030C000C002FFF780FCC0B200F072F8C0B202BDCF
:1030D00080B500220022C9B2D0F8C002FFF7E7FC99
:1030E000C0B200F065F8C0B202BD80B50022002277
:1030F000C9B2D0F8C002FFF71BFDC0B200F058F80B
:10310000C0B202BDD0F8C0020A00D2B2120607D582
:10311000C9B211F07F014901084490F82A0006E085
:10312000C9B211F07F014901084490F82A017047A3
:1031300080B500220022C9B2D0F8C002FFF7EEFB32
:10314000C0B200F035F8C0B202BD10B500240024B2
:103150009BB2C9B2D0F8C002FFF78BFCC0B200F03E
:1031600027F8C0B210BD10B5002400249BB2C9B22C
:10317000D0F8C002FFF756FCC0B200F019F8C0B298
:1031800010BD80B5C9B2D0F8C002FFF76AFC02BD1D
:103190000548704700000000005C00401C10024021
:1031A00010ED00E0141C0020801E002070477047C6
:1031B0000021C0B2002805D0022807D004D303287C
:1031C00006D007E0002006E0022004E0012002E033
:1031D000022000E00220C0B27047F0B4024610683E
:1031E00095681318506803EB5004C0071DD54D4473
:1031F0001BE013F8017B05F8017B491EF9D1A0B152
:10320000B60813F8011B06F00306032E08BF13F8D7
:10321000016B01EB06214942801C294405D011F8BD
:10322000016B05F8016B401EF9D1A3420ED013F8D3
:10323000016B16F0030104BF13F8011BC91C300910
:103240000F28DAD113F8010B0F30D6E7F0BC02F1EA
:103250000C00704762B38B0708D0521E11F8013B77
:1032600000F8013B00F024808B07F6D1830740F083
:10327000208000BF103A07D330B4B1E83810103ABC
:10328000A0E83810F9D230BC530724BFB1E80810C9
:10329000A0E8081044BF51F8043B40F8043BD207B3
:1032A00024BF31F8022B20F8022B44BF0B780370A7
:1032B0007047121F17D35B0009D151F8043B20F867
:1032C000023B1B0C121F20F8023BF6D20BE051F818
:1032D000043B00F8013B1B0A20F8023B1B0C121FA9
:1032E00000F8013BF3D238BF121D521E24BF11F863
:1032F000013B00F8013BF8D8704780B5002801D1A8
:10330000022011E0D0F8B432002B02D00023C0F824
:10331000B432002901D0C0F8B012012180F89C120B
:103320000270FFF76AFE002002BD0022002903D0D0
:10333000C0F8B412002000E00220C0B2704780B58F
:10334000FFF79BFE002002BD0020704710B502244D
:10335000D0F8B422002A07D0C9B2D0F8B42212683B
:103360009047002800D100242000C0B210BD80B5D5
:10337000C9B2D0F8B42252689047002002BD10B5FF
:10338000040014F52A7000F07BFE0120C4F89402BA
:10339000B4F8AE02C4F8980294F8A80210F01F0026
:1033A000002803D002280DD006D311E014F52A71AD
:1033B000200000F0D9FA12E014F52A71200000F084
:1033C00010FB0CE014F52A71200000F040FB06E031
:1033D00094F8A81211F080012000FFF779FE002078
:1033E00010BD10B5040010000A00D2B2002A39D175
:1033F00014F5AA72D4F89412032927D11169D3685D
:10340000994211D2D36811695B1AD360D1681369EC
:10341000994201D2D26800E0126992B20100200004
:1034200000F0ADFE002010BDD4F8B4020069002801
:1034300008D094F89C02032804D12000D4F8B412D8
:1034400009698847200000F0A3FEEBE7D4F8940256
:103450000528E7D10020C4F8940200212000FFF7DE
:1034600037FEDFE7D4F8B402806900280AD094F868
:103470009C02032806D1C9B22000D4F8B422926974
:103480009047CFE70220CEE710B5040010000A00F5
:10349000D2B2002A68D114F11402D4F8941202298D
:1034A0004AD11169D368994210D2D36811695B1A65
:1034B000D360D26892B20100200000F043FE0023E6
:1034C000002200212000FFF74EFE41E090681169C4
:1034D000B0FBF1F301FB1300002817D190681169CC
:1034E000884213D39068D4F8981288420ED20022F2
:1034F0000021200000F026FE0020C4F898020023DE
:10350000002200212000FFF72EFE21E0D4F8B402B3
:10351000C068002808D094F89C02032804D1200039
:10352000D4F8B412C968884780212000FFF7D0FD85
:10353000200000F038FE0BE0D4F89402042803D0F9
:10354000D4F89402002803D180212000FFF7C0FDA9
:1035500094F8A002012805D12000FFF7F5FE002015
:1035600084F8A002002010BDD4F8B40240690028FD
:103570000AD094F89C02032806D1C9B22000D4F8DE
:10358000B42252699047EDE70220ECE710B5040041
:103590004023002200212000FFF77BFD0120C4F81A
:1035A00058014020C4F864014023002280212000FB
:1035B000FFF76FFD0120A06140206062012084F8C8
:1035C0009C020020C4F89402002060600020C4F82F
:1035D000A402D4F8B802002806D06168C9B220005D
:1035E000D4F8B42252689047002010BD0174002026
:1035F000704790F89C1280F89D12042180F89C126C
:103600000020704790F89C12042903D190F89D1275
:1036100080F89C120020704780B590F89C12032916
:1036200008D1D0F8B412C969002903D0D0F8B41277
:10363000C9698847002002BD00B58FB000F0BEFD0B
:1036400000F031F800F0A1F800F073F800F0C8FDC8
:1036500000220921042000F038FE964908600AA8DB
:1036600095491422FFF706FE00210AA801F02CF864
:103670009249086005A892491422FFF7FBFD00213A
:1036800005A801F021F88F49086068468E49142288
:10369000FFF7F0FD0021684601F016F88B4908603D
:1036A00001F00DF8FEE780B59CB005A8282101F0D7
:1036B00023F86846142101F01FF80FA8342101F007
:1036C0001BF8012005905FF48030069000210791DF
:1036D0000121099102210C910D905FF4E0100E90F0
:1036E00005A8FEF79DFA002801D000F0FFF80F2092
:1036F000009002200190002002904FF4806003901F
:103700000020049002216846FEF7C4FD002801D085
:1037100000F0ECF86E480F902020139000201B90D2
:103720000FA800F0EDFF002801D000F0DFF81DB079
:1037300000BD10B5674C6848206068486060002094
:10374000A0600120E0600020206100206061002076
:10375000A0610020E06100202062200001F0E2F87A
:10376000002801D000F0C2F80021200001F0FEFB8B
:10377000002801D000F0BAF80021200001F027FC59
:10378000002801D000F0B2F810BD10B586B001A835
:10379000142100F0B1FF5248016851F4800101602A
:1037A000016811F4800100910099016851F48021B1
:1037B0000160016811F4802100910099016851F4C1
:1037C00000310160006810F4003000900098454C12
:1037D00000224FF48051200001F0FBFC4FF4805098
:1037E000019001200290002003900020049001A984
:1037F000200001F01BFC06B010BD70B586B03A4841
:10380000BB21017066214170BB2181706621C170AE
:1038100041F2883001F0F8FC324C00224FF4805124
:10382000200001F0D6FCA2208DF8080002ADAA20ED
:10383000687016208DF80400264EFF2000900123AA
:1038400001AAEC21300001F0D3F8FF2000901023F2
:103850000DF10A02ED21300001F087F9002808D0AF
:10386000AA208DF80800A22068700E2102A801F09D
:103870002FFD0E2102A801F02BFD01224FF48051F3
:10388000200001F0A6FC11480068FCF7BCFD0B49C4
:103890000868002802D00868FCF74FFD06B070BD2C
:1038A00010B5114C201D01F03CFD0E21200001F04F
:1038B0000FFDF6E760240020706300085424002008
:1038C0008463000858240020986300085C240020CA
:1038D000400002002C23002000580040D38D8010AF
:1038E000141002400004004878230020704710B4F0
:1038F0000C00A4B2240606D589B211F007014901D3
:103900000844283004E089B24901084410F5947055
:1039100092B2002A03D100210173C38004E0012187
:10392000017303811B0C4381002010BC704730B42D
:10393000002513E050F8042BD30744BFA9F101037D
:103940009A18091F042942F8045BFAD213468C071F
:1039500044BF15809B1CC90748BF1D7050F8041B4D
:103960000029E7D130BC704710B500240A7812F066
:103970006002002A08D0202A01D0402A2CD1D0F899
:10398000B4229268904729E04A78002A18D0012A88
:103990001CD0032A17D0052A09D0062A04D0082AE9
:1039A0000BD0092A06D014E000F077F913E000F0FC
:1039B00074FA10E000F0A0FA0DE000F007FB0AE056
:1039C00000F023FB07E000F03FFB04E000F046FBC3
:1039D00001E000F069FB01E000F066FB2000C0B2EE
:1039E00010BD38B504000D000020287810F06000EC
:1039F000002803D0202801D0402822D194F89C022E
:103A0000401E022818D82879022810D22900200048
:103A1000D4F8B422926890470100E88800280AD1BF
:103A2000C9B2002907D1200000F0B2FB03E0290051
:103A3000200000F039FB03E02900200000F034FBF7
:103A400003E02900200000F02FFB002032BD70B5FC
:103A50000500002488880A7812F06002002A0AD043
:103A6000202A02D0402A40F012812800D5F8B42242
:103A7000926890470EE10A7812F06002202A06D17F
:103A80002800D5F8B42292689047C0B204E14A7881
:103A9000002A6CD0012A3AD0032A40F0F48095F82D
:103AA0009C22022A02D0032A16D02CE00200D2B2B5
:103AB000002A0DD00200D2B2802A09D00100C9B27A
:103AC0002800FFF705FB80212800FFF701FB02E03B
:103AD000280000F0E9FA19E04A88002A0FD1020014
:103AE000D2B2002A0BD00200D2B2802A07D0C988F5
:103AF000002904D10100C9B22800FFF7E9FA280023
:103B000000F046FB02E0280000F0CEFABEE095F897
:103B10009C22022A02D0032A16D024E00200D2B24C
:103B2000002A0DD00200D2B2802A09D00100C9B209
:103B30002800FFF7CDFA80212800FFF7C9FA02E03C
:103B4000280000F0B1FA11E0498800290AD110F0EC
:103B50007F0F04D00100C9B22800FFF7C6FA280081
:103B600000F016FB02E0280000F09EFA8EE095F8C7
:103B70009C22022A02D0032A28D080E00200D2B27E
:103B8000002A07D00200D2B2802A03D0280000F019
:103B90008BFA77E00100C9B2090608D5C0B210F06F
:103BA0007F0014214843284410F1140107E0C0B2FB
:103BB00010F07F0014214843284410F5AA7100201A
:103BC00008600222280000F0ABFA5BE00200D2B2EB
:103BD00012060ED50300DBB213F00F031422534379
:103BE00005EB03029269002A13D1280000F05CFA69
:103BF00048E00300DBB213F00F031422534305EB3C
:103C00000302D2F85821002A03D1280000F04CFA10
:103C100038E00100C9B209060AD50200D2B212F09A
:103C20007F0214214A4305EB020111F1140609E059
:103C30000200D2B212F07F0214214A4305EB0201C6
:103C400011F5AA760100C9B2002903D00100C9B25A
:103C5000802902D1002030600BE00100C9B22800A9
:103C6000FFF750FA002802D00120306001E0002068
:103C7000306002223100280000F052FA02E02800F1
:103C800000F012FA02E0280000F00EFA02E028002C
:103C900000F00AFA2000C0B270BDF8B505000E00B1
:103CA0000020ADF8000000270024708880B2000AD0
:103CB000C0B201280AD0022810D0032823D0062839
:103CC00000F0A580072800F0B280C2E06946287C99
:103CD000D5F8B022126890470700BFE0287C002882
:103CE00008D16846D5F8B412896A884707000220CF
:103CF000787007E06846D5F8B412C96A88470700AB
:103D000002207870AAE0B078002808D002282CD0D1
:103D100018D304284FD03BD305285FD071E0D5F8E5
:103D2000B0024068002807D06946287CD5F8B02248
:103D300052689047070004E03100280000F0B4F911
:103D4000641C63E0D5F8B0028068002807D069469B
:103D5000287CD5F8B02292689047070004E0310033
:103D6000280000F0A1F9641C50E0D5F8B002C0684A
:103D7000002807D06946287CD5F8B022D268904741
:103D8000070004E03100280000F08EF9641C3DE0DB
:103D9000D5F8B0020069002807D06946287CD5F81C
:103DA000B02212699047070004E03100280000F0BB
:103DB0007BF9641C2AE0D5F8B0024069002807D0DE
:103DC0006946287CD5F8B02252699047070004E084
:103DD0003100280000F068F9641C17E0D5F8B00243
:103DE0008069002807D06946287CD5F8B0229269FE
:103DF0009047070004E03100280000F055F9641CEA
:103E000004E03100280000F04FF9641C26E0287C13
:103E1000002806D16846D5F8B412496B88470700D8
:103E200004E03100280000F03FF9641C16E0287C13
:103E3000002808D16846D5F8B412096B88470700F6
:103E40000720787004E03100280000F02DF9641C90
:103E500004E03100280000F027F9641CE4B2002CD3
:103E60001AD1BDF80000002810D0F08800280DD02D
:103E7000BDF80000F188884202D3F088ADF8000058
:103E8000BDF800203900280000F04AF9F088002829
:103E900002D1280000F07CF9F1BD38B50500888812
:103EA000002825D1C888002822D1488880281FD220
:103EB0008C7814F07F0495F89C02032803D1280025
:103EC00000F0F2F817E085F89E422100C9B2280000
:103ED000FFF72EF9280000F05BF9E4B2002C03D0C4
:103EE000022085F89C0206E0012085F89C0202E091
:103EF000280000F0D9F831BD70B504000D00324E35
:103F0000688830703078022804D32900200000F03F
:103F1000CBF857E094F89C02022802D003281BD06B
:103F200048E03078002813D030786060032084F8AF
:103F30009C0231782000FFF709FA022804D12900F9
:103F4000200000F0B1F83DE0200000F021F902E08F
:103F5000200000F01DF935E0307800280CD1022057
:103F600084F89C023078606031782000FFF7FFF918
:103F7000200000F00DF91CE030786168884215D00F
:103F80006168C9B22000FFF7F2F9307860603178DB
:103F90002000FFF7DBF9022804D12900200000F0FF
:103FA00083F80FE0200000F0F3F802E0200000F0BA
:103FB000EFF807E02900200000F076F831782000C3
:103FC000FFF7D5F970BD0000A924002080B5CA888C
:103FD000012A02D000F068F816E090F89C22521EE8
:103FE000012A02D9921E08D00CE000218160012232
:103FF00010F1080100F094F806E00122011D00F024
:104000008FF801E000F050F801BD80B590F89C22D7
:10401000521E022A15D8CA88022A02D000F044F89B
:1040200011E00121C160D0F8A412002903D0C168B9
:1040300051F00201C160022210F10C0100F070F891
:1040400001E000F031F801BD80B54988012904D1B3
:104050000121C0F8A41200F09BF801BD80B590F8D2
:104060009C22521E022A08D84988012904D1002125
:10407000C0F8A41200F08CF801E000F015F801BDC2
:104080000A7802704A7842708A78CB781B029A18B4
:1040900042800A794B791B029A1882808A79C97901
:1040A00009028918C180704710B5040080212000E2
:1040B000FFF70EF800212000FFF70AF810BDF8B551
:1040C00004000D0017000026002C1ED0200000F078
:1040D0001DF84000801C388038783100C9B268541F
:1040E000761C03203100C9B26854761C0AE020789F
:1040F0003100C9B26854641C761C00203100C9B27A
:104100006854761C20780028F1D1F1BD020000200F
:1041100001E0401C521C11780029FAD1C0B270474E
:1041200080B513000222C0F894221A0092B2C26134
:104130001A0092B202629BB20A000021FFF705F852
:10414000002002BD80B513009BB20A000021FEF7DB
:10415000FCFF002002BD80B513000322C0F89422AA
:104160001A0092B2C0F85C211A0092B2C0F8602125
:104170009BB20A000021FEF7F6FF002002BD80B5C9
:1041800013009BB20A000021FEF7EDFF002002BDE4
:1041900080B50421C0F89412002300220021FEF70C
:1041A000D4FF002002BD80B50521C0F89412002381
:1041B00000220021FEF7D7FF002002BD80B507488E
:1041C000016851F0100101600320FEF72AFA0F2068
:1041D000FEF79AF901F0F6F8002002BD0020024037
:1041E00010B5114C002211492000FFF786F8002875
:1041F00001D0FFF77BFB0E492000FFF796F800285F
:1042000001D0FFF773FB0B49200001F0B9FA002839
:1042100001D0FFF76BFB2000FFF791F8002801D0D9
:10422000FFF764FB10BD00BF501900202C010020D7
:10423000180000201C01002038B504000D00002CDF
:1042400007D1502080F31188BFF34F8FBFF36F8FDA
:10425000FEE7FCF707FF2168E26B206C424301EBAD
:10426000020060600020A0632068A0602168E26B0B
:10427000521E206C424301EB0200E0605FF0FF3011
:1042800084F8440084F84500002D12D120690028EC
:1042900017D014F11000FCF7F0FA002811D05FF0ED
:1042A0008050DFF800140860BFF34F8FBFF36F8FAB
:1042B00007E014F11000FCF7F9FD14F12400FCF7FD
:1042C000F5FDFCF7E9FE012032BDF8B506000D0052
:1042D0001700002E07D1502080F31188BFF34F8FB5
:1042E000BFF36F8FFEE7002D01D1002001E005FB39
:1042F00006F04830FCF7AAFC0400002C08D014F1AA
:10430000480200943B00DBB22900300000F002F8C4
:104310002000F2BD80B5029B002901D11B6000E0A6
:104320001A60D863196401211800FFF785FF01BDE9
:104330002DE9F84305000E0014009846002D07D122
:10434000502080F31188BFF34F8FBFF36F8FFEE7CC
:10435000002E02D1286C002801D1012000E00020AD
:10436000C0B2002807D1502080F31188BFF34F8FCF
:10437000BFF36F8FFEE7B8F1020F02D1E86B01289F
:1043800001D1012000E00020C0B2002807D1502058
:1043900080F31188BFF34F8FBFF36F8FFEE7FCF7F9
:1043A000A5FEEFF31187502080F31188BFF34F8FE4
:1043B000BFF36F8FA86BE96B884202D3B8F1020F8D
:1043C00020D195F9459042463100280000F0CDF803
:1043D00048465FF0FF3140B288420DD1686A00283C
:1043E0000ED015F12400FCF748FA002808D0002C64
:1043F00006D00120206003E019F1010985F84590FD
:10440000012000E0002087F31188BDE8F283F7B5B2
:1044100006000F000024002E07D1502080F31188E1
:10442000BFF34F8FBFF36F8FFEE7002F02D1306CC9
:10443000002801D1012000E00020C0B2002807D1EF
:10444000502080F31188BFF34F8FBFF36F8FFEE7CB
:10445000FCF724FB002802D10298002801D101209A
:1044600000E00020C0B200280CD1502080F3118859
:10447000BFF34F8FBFF36F8FFEE7300000F0CDF832
:10448000FCF7C0F8FCF7EEFDB56B002D06D10298E5
:1044900000281FD1FCF700FE002065E03900300045
:1044A00000F0A6F86D1EB563306900280ED016F135
:1044B0001000FCF7E2F9002808D05FF08050DFF828
:1044C000E4110860BFF34F8FBFF36F8FFCF7E4FD7B
:1044D000012049E0002C03D16846FCF70BFA0124C7
:1044E000FCF7DAFDFCF788F8FCF7BCFD96F9440010
:1044F00010F1010F02D1002086F8440096F9450022
:1045000010F1010F02D1002086F84500FCF7C4FD30
:1045100002A96846FCF7F7F900281AD1300000F02C
:10452000B3F80028A9D0029916F12400FCF78EF9FF
:10453000300000F072F8FCF765F80028A2D15FF0B7
:104540008050DFF860110860BFF34F8FBFF36F8FAB
:1045500098E7300000F061F8FCF754F8300000F004
:1045600093F800288ED00020FEBD2DE9F041060012
:1045700015000027B46B306C002809D13068002882
:1045800031D17068FCF79EFA0700002070602AE0C5
:10459000002D0FD1326CB5682800FEF75BFEB068C5
:1045A000316C0844B060B068716888421BD33068D1
:1045B000B06018E0326CD6F80C804046FEF74AFE38
:1045C000F068316C49420844F060F0683168884214
:1045D00004D27068316C49420844F060022D02D167
:1045E000002C00D0641E641CB4633800BDE8F08168
:1045F00010B50C00016C00290ED0C168026C11448A
:10460000C160C1684268914201D30168C160026C17
:10461000C1682000FEF71EFE10BD70B50400FCF757
:1046200021FD94F9455008E014F12400FCF725F928
:10463000002801D0FCF7A8F96D1E280040B201281F
:1046400002DB606A0028EFD15FF0FF3584F8455047
:10465000FCF722FDFCF706FD94F9446008E014F134
:104660001000FCF70AF9002801D0FCF78DF9761E3E
:10467000300040B2012802DB20690028EFD184F825
:104680004450FCF709FD70BD10B50400FCF7EAFCCE
:10469000A06B002801D1012400E00024FCF7FCFC01
:1046A000200010BD04ED00E0010000200A0012B25D
:1046B000842A03D009B2C91C09180800704780B5C4
:1046C000FBF768FF002002BD3EB504000D00B4F901
:1046D0000800FFF7E9FF02A9019100902B00226971
:1046E00092B221686068FBF74FFD012801D00020DD
:1046F00000E002983EBD0000002201F095B80000E5
:104700002DE9FC410400002000202068C0037DD575
:104710000026DFF8F0512868C00009D4286850F05E
:1047200080502860286810F0805000900098012682
:10473000DFF8D4713868C00511D4386850F480703F
:104740003860FDF7DBFE80463868C00507D4FDF70A
:10475000D5FEB0EB08006528F6D30320D0E0DFF8E3
:10476000AC71386810F44070002842D0616811F4D0
:10477000407188423DD0386830F44070DFF89011C5
:104780004FF400420123B2FA82FC11EB8C0CCCF8FE
:1047900000300023B2FA82F211EB82010B60386024
:1047A000C00726D5FDF7AAFE80465FF08040B0FA2C
:1047B00080F1B0FA80F151F04001C9B249090229F3
:1047C00001D1396804E0B0FA80F1DFF848110968D6
:1047D000B0FA80F010F01F00C140C80709D4FDF7FF
:1047E0008DFEB0EB080041F289318842DDD3032011
:1047F00086E0396831F44071606801433960F6B28F
:10480000012E03D1286830F0805028602078C0073E
:1048100007D5DFF804110A6892089200A0680243E5
:104820000A602078800607D5DFF8EC100A6832F0BD
:104830001002E06802430A602068800307D5DFF8B1
:10484000DC100A6832F48002206B02430A60207890
:10485000400607D5DFF8C0100A6832F02002206950
:1048600002430A602068000407D5DFF8AC100A682C
:1048700032F04002606902430A602068800507D573
:10488000DFF898100A6832F40002E06902430A6017
:104890002078000607D5DFF888100A6832F4F8722D
:1048A000A06902430A602068C00407D5DFF86810D9
:1048B0000A6832F48072206A02430A60206840036A
:1048C00007D5DFF854100A6832F48062606A024348
:1048D0000A602068000307D5DFF83C100A6832F44C
:1048E0000062A06A02430A602068C00207D5DFF8B0
:1048F00028100A6832F40052E06A02430A6000207D
:10490000BDE8F6811C1002400070004020100240FB
:1049100000044242241002403010024004100240C1
:104920002C10024010B50400002C01D101205EE0E3
:1049300094F84100002805D1002084F840002000B0
:1049400000F05CFD242084F84100206800684008E5
:10495000400021680860606830F07060216808617C
:104960002068806830F4004021688860E068012891
:1049700005D1A06850F400402168886004E0A06878
:1049800050F4044021688860E068022803D14FF4A5
:104990000060216848602068406840F0007050F472
:1049A0000040216848602068C06830F400402168F9
:1049B000C860216960690143A06951EA002120684B
:1049C000C160E169206A01432068016020680068D5
:1049D00050F001002168086000206064202084F805
:1049E000410000202063002084F84200002010BD18
:1049F0002DE9FC4104000E001700984694F8410090
:104A0000202840F0AF8094F84000012801D1022016
:104A1000A9E0012084F84000FDF770FD0500009535
:104A2000192301224FF40041200000F073F90028FF
:104A300001D0012097E0212084F84100102084F863
:104A40004200002060646762A4F82A80002060634E
:104A5000089F608DB0F5807F0ED3FF202085DFF8A2
:104A6000840200905FF08073228DD2B2310089B24F
:104A7000200000F061FA1BE0608D2085DFF8640201
:104A800000905FF00073228DD2B2310089B2200015
:104A900000F052FA0CE0FF202085002000905FF02B
:104AA0008073228DD2B2310089B2200000F044FA26
:104AB000608D002838D02A003900200000F059F914
:104AC000002801D001204EE0606A007821688862E9
:104AD000606A401C6062608D401E6085208D401EB3
:104AE0002085608D0028E3D0208D0028E0D100953E
:104AF0003B0000228021200000F00CF9002801D0AA
:104B0000012030E0608DB0F5807FC4D2608D2085BB
:104B1000002000905FF00073228DD2B2310089B284
:104B2000200000F009FAC3E72A003900200000F055
:104B30004CF9002801D0012015E020202168C8612F
:104B400020684168DFF8A001014020684160202012
:104B500084F84100002084F84200002084F84000DE
:104B6000002000E00220BDE8F6812DE9FC410400B0
:104B70000E001700984694F84100202840F0AF80BE
:104B800094F84000012801D10220A9E0012084F816
:104B90004000FDF7B3FC05000095192301224FF4F6
:104BA0000041200000F0B6F8002801D0012097E075
:104BB000222084F84100102084F842000020606424
:104BC0006762A4F82A8000206063089F608DB0F5BA
:104BD000807F0ED3FF202085DFF8100100905FF06A
:104BE0008073228DD2B2310089B2200000F0A4F986
:104BF0001BE0608D2085DFF8F40000905FF000730B
:104C0000228DD2B2310089B2200000F095F90CE07B
:104C1000FF202085002000905FF08073228DD2B2AB
:104C2000310089B2200000F087F9608D002838D06B
:104C30002A003900200000F0F1F8002801D00120FE
:104C40004EE02068406A616A0870606A401C6062D9
:104C5000208D401E2085608D401E6085608D00285F
:104C6000E3D0208D0028E0D100953B000022802178
:104C7000200000F04FF8002801D0012030E0608DC6
:104C8000B0F5807FC4D2608D2085002000905FF059
:104C90000073228DD2B2310089B2200000F04CF9AD
:104CA000C3E72A003900200000F08FF8002801D067
:104CB000012015E020202168C86120684168DFF8E4
:104CC0002800014020684160202084F84100002035
:104CD00084F84200002084F84000002000E0022018
:104CE000BDE8F6810020008000E800FE002400807E
:104CF00001688969890702D500210268916201680B
:104D00008969C90705D40168896951F00101006802
:104D1000816170472DE9F04105000E0090461C00AE
:104D2000069F286880693040B04201D1012000E030
:104D300000204146C9B2884218D114F1010FF0D0C9
:104D4000FDF7DCFBC01B844201D3002CE9D1686C69
:104D500050F020006864202085F84100002085F88C
:104D60004200002085F84000012000E00020BDE85E
:104D7000F08170B505000C00160028688069800776
:104D800021D432002100280000F091F8002801D041
:104D9000012019E014F1010FEFD0FDF7AFFB801BEC
:104DA000844201D3002CE8D1686C50F02000686484
:104DB000202085F84100002085F84200002085F879
:104DC0004000012000E0002070BD70B505000C001F
:104DD00016002868806980061ED432002100280051
:104DE00000F065F8002815D1FDF788FB801B844290
:104DF00001D3002CEDD1686C50F0200068642020B5
:104E000085F84100002085F84200002085F8400028
:104E1000012002E0012000E0002070BD70B5050017
:104E20000C0016002868806940073ED4320021003B
:104E3000280000F03CF8002816D128688069800618
:104E400014D4FDF75BFB801B844201D3002CE9D115
:104E5000686C50F020006864202085F84100002034
:104E600085F84000012021E001201FE028688069CA
:104E7000400704D5288D002801D0002016E020200E
:104E80002968C8612868416836480140286841603F
:104E900000206864202085F84100002085F8420049
:104EA000002085F84000012000E0002070BD70B5B2
:104EB00005000C00160028688069C0063AD52868ED
:104EC0008069800618D414F1010FF8D0FDF716FBA5
:104ED000801B844201D3002CF1D1686C50F020007B
:104EE0006864202085F84100002085F842000020F9
:104EF00085F8400001201EE010202968C8612020AC
:104F00002968C8612800FFF7F3FE28684168154842
:104F1000014028684160686C50F0040068642020FB
:104F200085F84100002085F84200002085F8400007
:104F3000012000E0002070BD70B4039C05686D681E
:104F4000094E56EA5456B54389B28905890D29435D
:104F5000D2B251EA0241194321430068416070BC5A
:104F60007047000000E800FEFF63FF0390F8412057
:104F7000202A2AD190F84020012A01D1022025E0E0
:104F8000012280F84020242280F841200268126823
:104F90005208520003681A600268126832F48052A4
:104FA00003681A60026812681143026811600168A0
:104FB000096851F0010102681160202180F8411058
:104FC000002180F84010002000E00220704790F897
:104FD0004120202A27D190F84020012A01D1022027
:104FE00022E0012280F84020242280F8412002683B
:104FF00012685208520003681A600268126832F49C
:10500000706252EA012201680A600168096851F081
:10501000010102681160202180F84110002180F810
:105020004010002000E0022070470000F8B40200A9
:10503000002432E0052704E0DFF8A8319A42F9D1D4
:10504000032714F00303DBB29B009F403E43230081
:105050009B0845F82360644D2B6883434E68F60334
:1050600000D503432B60614D2B6883434E68B60324
:1050700000D503432B605E4D2B6883434E68F602D8
:1050800000D503432B605B4D2B6883434E68B6020B
:1050900001D5184303002B60641C0868E040002819
:1050A00000F095800125086815FA04F318400028DF
:1050B000F2D04B68022B02D04B68122B17D1230081
:1050C000DB0802EB83031E6A0F2714F00703DBB231
:1050D0009B009F40BE430F6914F00703DBB29B00A7
:1050E0009F403E432300DB0802EB83031E621768E8
:1050F00003262300DBB25B0016FA03F39F4391F80B
:1051000004C01CF0030C2300DBB25B001CFA03FCA0
:105110005CEA070717604B68012B08D04B68022B2D
:1051200005D04B68112B02D04B68122B19D1976810
:105130002300DBB25B0016FA03F39F43D1F80CC0E7
:105140002300DBB25B001CFA03FC5CEA07079760F4
:105150005368A540AB434D68C5F30015A5402B43EC
:105160005360D5682300DBB25B009E40B5438E6878
:105170002300DBB25B009E403543D5604B68DB000B
:105180008AD51D4B1D6855F001051D601B6813F085
:1051900001030093009B194D23009B0855F82360E1
:1051A0000F2714F00303DBB29B009F40BE43B2F114
:1051B000904F01D1002744E7114B9A4201D10127BA
:1051C0003FE7104B9A427FF437AF022739E7F1BC33
:1051D0007047D2B2002A02D089B2816101E089B25F
:1051E00081627047000C0048000401400404014043
:1051F000080401400C04014018100240080001405E
:10520000000400480008004838B50400FDF776F9AE
:10521000050014F1010F02D0044800782418FDF7AE
:105220006DF9401BA042FAD331BD00BF7C010020C4
:1052300010B5324C00223249200000F0AAFA314960
:10524000200000F0AFFA002010BD00207047C0B26F
:10525000002810D001280FD002280ED003280DD02E
:1052600004280CD020280BD021280AD0222809D0CD
:10527000232808D008E007E006E005E004E003E0AA
:1052800002E001E000E0FFE7002070477FB5040086
:105290000D001A4E2100300000F084FA300000F0BA
:1052A000A6FA28688DF800002A780DF10105210082
:1052B0002800FDF7CFFF002300226946124800684E
:1052C000FFF736F8012800D0FEE7002004B070BDDB
:1052D00010B50A000021094CD4F8B812D1F8141204
:1052E000002901D0012008E092B20100200000F066
:1052F00050FA200000F05CFAC0B210BD5019002036
:1053000068150020801100206024002001B582B0C3
:10531000FF200090012302AAEC212748FFF768FB39
:105320000EBD38B505005020FFF7F0FF0920FFF74C
:105330006BFF1020FFF7EAFF0020009003E000BFA2
:105340000098401C00900098C828F8D31A4CFF2001
:10535000009032232A00ED212000FFF706FC0028F0
:1053600028D016482060164860600020A060012008
:10537000E06000202061002060610020A06100202A
:10538000E061002020622000FFF7CCFA002801D065
:10539000FEF7ACFA00212000FFF7E8FD002801D05D
:1053A000FEF7A4FA00212000FFF711FE002801D02B
:1053B000FEF79CFA31BD00002C230020005800406D
:1053C000D38D801080B52648016851F0010101603D
:1053D000006810F00100009000982248016851F028
:1053E00080510160006810F0805000900098002209
:1053F0000F217FF00100FDF718F901BD10B586B04F
:10540000040001A81421FFF777F9206816498842A3
:1054100023D11648016851F400310160006810F48E
:105420000030009000984FF4C0600190122002906C
:1054300001200390032004900420059001A95FF04F
:105440009040FFF7F3FD0748016851F480010160C7
:10545000006810F480000090009806B010BD0000B5
:10546000181002401C100240005800401410024066
:1054700070B504000025207C002813D14FF4007380
:10548000022281212000FDF704FE0120E0624FF49A
:105490000073022201212000FDF7FBFD0120C4F86A
:1054A0006C0110E04023022281212000FDF7F1FD74
:1054B0000120E0624023022201212000FDF7E9FDE6
:1054C0000120C4F86C010823032282212000FDF78B
:1054D000E0FD012020644FF40770FDF759FEC4F889
:1054E000B802D4F8B802002801D101251EE0D4F892
:1054F000B862D4F8BC02006880470020C6F81402E5
:105500000020C6F81802207C002808D14FF4007350
:10551000D6F8042201212000FDF725FE06E04023F5
:10552000D6F8042201212000FDF71DFE2800C0B29C
:1055300070BD38B50400002581212000FDF7BBFDBA
:105540000020E06201212000FDF7B5FD0020C4F835
:105550006C0182212000FDF7AEFD00202064D4F80C
:10556000B80200280AD0D4F8BC0240688047D4F8BA
:10557000B802FDF71BFE0020C4F8B8022800C0B234
:1055800032BDF8B504000D00D4F8B86200208DF8E3
:1055900000000020ADF802000027287810F060001D
:1055A000002828D020285FD1E88800281BD0287840
:1055B00000060CD5EA8831006878D4F8BC329B68C4
:1055C0009847EA8831002000FEF7AAFD12E06878CB
:1055D00086F80002E88886F80102EA883100200097
:1055E000FEF7B9FD06E0002229006878D4F8BC3245
:1055F0009B6898473DE06878002804D00A2813D0BB
:105600000B2821D02AE094F89C02032806D102221C
:105610000DF102012000FEF783FD04E029002000C7
:10562000FEF742FD02271EE094F89C02032805D1F4
:10563000012269462000FEF773FD04E029002000E6
:10564000FEF732FD02270EE094F89C02032804D0F6
:1056500029002000FEF728FD022704E02900200091
:10566000FEF722FD022704E029002000FEF71CFDC2
:1056700002273800C0B2F2BD70B5D0F8B832D0F809
:10568000C052D0F8B822002A2AD014240A00D2B27C
:1056900062430244D269002A1DD00A00D2B262439A
:1056A0000244D2690E00F6B276013544AD6BB2FB0E
:1056B000F5F605FB1622002A0DD10A00D2B204FB32
:1056C00002F400EB04020023D36100230022C9B2DC
:1056D000FDF73BFD02E00020C3F81402002000E0CB
:1056E000022070BD38B50400D4F8B852C9B2200009
:1056F000FDF747FDC5F80C02D4F8B802002809D020
:1057000015F50371D5F80402D4F8BC22D26890478D
:10571000002000E0022032BD10B50300D3F8B842EB
:10572000D3F8BC02002810D094F80002FF280CD057
:1057300094F8012292B2210094F80002D3F8BC320E
:105740009B689847FF2084F80002002010BD432189
:105750000180074870474321018006487047432174
:105760000180054870470A21018004487047000005
:105770009400002050000020D80000200C000020E1
:1057800002000220002902D0C2F8BC120020C0B2E0
:105790007047D0F8B802C0F8081292B2C0F81022D0
:1057A00000207047D0F8B802C0F8041200207047FB
:1057B00080B5D0F8B822D0F8B812002915D0D2F8A8
:1057C000141200290FD10121C2F81412D2F81012BC
:1057D0000163D2F810329BB2D2F808228121FDF782
:1057E000B4FC002002E0012000E0022002BD80B5F0
:1057F000D0F8B822D0F8B812002912D0017C0029C4
:1058000007D14FF40073D2F804220121FDF7ABFC5D
:1058100005E04023D2F804220121FDF7A4FC00207A
:1058200000E0022002BD000000B500BF1300964654
:105830009446103928BFA0E80C50FAD85FEA417CA2
:1058400028BF0CC048BF40F8042BC90728BF20F868
:10585000022B48BF00F8012B00BD000000B585B049
:10586000AA208DF80000AA208DF8010055208DF89F
:10587000020055208DF803000D208DF8040034201F
:105880008DF8050000200DE0DFF8FC130200D2B215
:10589000D2F10C02521E895C6A460300DBB21A4444
:1058A0009171401C0100C9B20C29EDDB1221684640
:1058B000FFF70EFD05B000BDE0B5AA208DF8000091
:1058C0006846AA2141705521817055218DF8031039
:1058D0000621017124218DF805100221817100211A
:1058E0000BE0DFF8A8230800C0B2121A10786A464D
:1058F0000B00DBB21A44D071491C0800C0B2042866
:10590000EFDB0B216846FFF7E3FC07BDE0B5AA20FB
:105910008DF800006846AA214170552181705521FB
:10592000C17003208DF8040044208DF8050002208A
:105930008DF8060001208DF8070008216846FFF762
:10594000C7FC07BD3EB50400AA208DF800006D46D7
:10595000AA2068705520A87055208DF803002000FB
:10596000C0B208280ADB0220287158206871022082
:10597000A87107216846FFF7ABFC39E02000C0B2F0
:10598000C00706D500224FF48051C148FFF721FC23
:1059900005E001224FF48051BD48FFF71AFC2000BA
:1059A000C0B2800706D500224FF48051B848FFF7F7
:1059B00010FC05E001224FF48051B548FFF709FCC7
:1059C000E4B2600706D500224FF48051B048FFF7DB
:1059D00000FC05E001224FF48051AD48FFF7F9FBD0
:1059E000012028715420687106216846FFF770FC79
:1059F00037BDE0B5AA208DF80000AA208DF801007F
:105A000055208DF8020055208DF8030001208DF8F7
:105A1000040064208DF8050006216846FFF758FC55
:105A20009C480068FAF776FD07BDE0B5AA208DF81E
:105A30000000AA208DF8010055208DF802005520A5
:105A40008DF8030001208DF8040074208DF8050006
:105A500006216846FFF73CFC8E480068FAF7D3FC45
:105A600007BD80B588B0C0B268284AD1C9B2AE2996
:105A700047D103A81421FEF73FFEAA208DF80000AD
:105A80006846AA21417055218DF8021055218DF8E4
:105A900003100121017184208DF80500062168465C
:105AA000FFF716FC3220FFF7AFFB4FF48050039056
:105AB00001200490012005900020069003A95FF0CA
:105AC0009040FFF7B3FA00224FF480515FF090400E
:105AD000FFF77FFB4FF44870FFF796FB01224FF46E
